{
  "_format": "hh-sol-artifact-1",
  "contractName": "TokenBridge",
  "sourceName": "contracts/TokenBridge.sol",
  "abi": [
    {
      "inputs": [
        {
          "internalType": "address",
          "name": "_token",
          "type": "address"
        }
      ],
      "stateMutability": "nonpayable",
      "type": "constructor"
    },
    {
      "anonymous": false,
      "inputs": [
        {
          "indexed": false,
          "internalType": "address",
          "name": "from",
          "type": "address"
        },
        {
          "indexed": false,
          "internalType": "address",
          "name": "to",
          "type": "address"
        },
        {
          "indexed": false,
          "internalType": "uint256",
          "name": "amount",
          "type": "uint256"
        },
        {
          "indexed": false,
          "internalType": "uint256",
          "name": "timestamp",
          "type": "uint256"
        },
        {
          "indexed": true,
          "internalType": "enum TokenBridge.Step",
          "name": "step",
          "type": "uint8"
        }
      ],
      "name": "TransferEvent",
      "type": "event"
    },
    {
      "inputs": [
        {
          "internalType": "uint256",
          "name": "_amount",
          "type": "uint256"
        },
        {
          "internalType": "uint256",
          "name": "_deadline",
          "type": "uint256"
        },
        {
          "internalType": "string",
          "name": "_message",
          "type": "string"
        },
        {
          "internalType": "bytes",
          "name": "_signature",
          "type": "bytes"
        }
      ],
      "name": "burnToken",
      "outputs": [],
      "stateMutability": "nonpayable",
      "type": "function"
    },
    {
      "inputs": [
        {
          "internalType": "uint256",
          "name": "_amount",
          "type": "uint256"
        },
        {
          "internalType": "uint256",
          "name": "_deadline",
          "type": "uint256"
        },
        {
          "internalType": "string",
          "name": "_message",
          "type": "string"
        },
        {
          "internalType": "bytes",
          "name": "_signature",
          "type": "bytes"
        }
      ],
      "name": "lockToken",
      "outputs": [],
      "stateMutability": "nonpayable",
      "type": "function"
    },
    {
      "inputs": [
        {
          "internalType": "uint256",
          "name": "_amount",
          "type": "uint256"
        }
      ],
      "name": "mintToken",
      "outputs": [],
      "stateMutability": "nonpayable",
      "type": "function"
    },
    {
      "inputs": [],
      "name": "totalAmount",
      "outputs": [
        {
          "internalType": "uint256",
          "name": "",
          "type": "uint256"
        }
      ],
      "stateMutability": "view",
      "type": "function"
    },
    {
      "inputs": [
        {
          "internalType": "uint256",
          "name": "_amount",
          "type": "uint256"
        }
      ],
      "name": "unlockToken",
      "outputs": [],
      "stateMutability": "nonpayable",
      "type": "function"
    }
  ],
  "bytecode": "0x60806040523480156200001157600080fd5b506040516200176538038062001765833981810160405281019062000037919062000123565b62000053677a180e3e6866efff60c01b620000b660201b60201c565b6200006f6736f57e8d528b2b6460c01b620000b660201b60201c565b806000806101000a81548173ffffffffffffffffffffffffffffffffffffffff021916908373ffffffffffffffffffffffffffffffffffffffff1602179055505062000155565b50565b600080fd5b600073ffffffffffffffffffffffffffffffffffffffff82169050919050565b6000620000eb82620000be565b9050919050565b620000fd81620000de565b81146200010957600080fd5b50565b6000815190506200011d81620000f2565b92915050565b6000602082840312156200013c576200013b620000b9565b5b60006200014c848285016200010c565b91505092915050565b61160080620001656000396000f3fe608060405234801561001057600080fd5b50600436106100575760003560e01c80631a39d8ef1461005c5780636ae952281461007a578063c634d03214610096578063dd2e0ac0146100b2578063e57ae157146100ce575b600080fd5b6100646100ea565b6040516100719190610e9f565b60405180910390f35b610094600480360381019061008f91906110e1565b6100f0565b005b6100b060048036038101906100ab9190611180565b6104b4565b005b6100cc60048036038101906100c79190611180565b6107a5565b005b6100e860048036038101906100e391906110e1565b610aab565b005b60015481565b610104678e77a3506002c27560c01b610e83565b338461011a67842438bedd5bc36c60c01b610e83565b61012e674049900f9bcff55160c01b610e83565b61014267c920aa3646e5075e60c01b610e83565b6101566781e4ddf6ada0131e60c01b610e83565b8060008054906101000a900473ffffffffffffffffffffffffffffffffffffffff1673ffffffffffffffffffffffffffffffffffffffff166370a08231846040518263ffffffff1660e01b81526004016101b091906111ee565b602060405180830381865afa1580156101cd573d6000803e3d6000fd5b505050506040513d601f19601f820116820180604052508101906101f1919061121e565b1015610232576040517f08c379a0000000000000000000000000000000000000000000000000000000008152600401610229906112a8565b60405180910390fd5b61024667ad5f32c1d1b236bd60c01b610e83565b61025a676ff19816ee6ad82660c01b610e83565b61026e677987c8ac231ef86560c01b610e83565b61028267f5fba43e1b43d61a60c01b610e83565b6102966788a266645af1b22b60c01b610e83565b6102aa679580ddc0a498f8b360c01b610e83565b60008054906101000a900473ffffffffffffffffffffffffffffffffffffffff1673ffffffffffffffffffffffffffffffffffffffff16631acbee153330898989896040518763ffffffff1660e01b815260040161030d9695949392919061138b565b6020604051808303816000875af115801561032c573d6000803e3d6000fd5b505050506040513d601f19601f820116820180604052508101906103509190611432565b50610365670355c1ad64268c2060c01b610e83565b61037967cba933b3c775c7b560c01b610e83565b60008054906101000a900473ffffffffffffffffffffffffffffffffffffffff1673ffffffffffffffffffffffffffffffffffffffff16639dc29fac33886040518363ffffffff1660e01b81526004016103d492919061145f565b600060405180830381600087803b1580156103ee57600080fd5b505af1158015610402573d6000803e3d6000fd5b5050505061041a67385be15c7be0cf4c60c01b610e83565b856001600082825461042c91906114b7565b9250508190555061044767e73e6d625b44a08e60c01b610e83565b61045b679b4a564174deb3b560c01b610e83565b6002600381111561046f5761046e6114eb565b5b7f3c6e2d77714d15a40ff87709d1284716a4b5a7b08b88df1cf79f2b7f875452f7333089426040516104a4949392919061151a565b60405180910390a2505050505050565b6104c867c2c6ed04438401a960c01b610e83565b30816104de67842438bedd5bc36c60c01b610e83565b6104f2674049900f9bcff55160c01b610e83565b61050667c920aa3646e5075e60c01b610e83565b61051a6781e4ddf6ada0131e60c01b610e83565b8060008054906101000a900473ffffffffffffffffffffffffffffffffffffffff1673ffffffffffffffffffffffffffffffffffffffff166370a08231846040518263ffffffff1660e01b815260040161057491906111ee565b602060405180830381865afa158015610591573d6000803e3d6000fd5b505050506040513d601f19601f820116820180604052508101906105b5919061121e565b10156105f6576040517f08c379a00000000000000000000000000000000000000000000000000000000081526004016105ed906112a8565b60405180910390fd5b61060a67ad5f32c1d1b236bd60c01b610e83565b61061e676ff19816ee6ad82660c01b610e83565b61063267619c448b361f48c160c01b610e83565b61064667b5736e6fdb8a2e8360c01b610e83565b61065a67a010b6ebb8e54f7c60c01b610e83565b61066e67e2f90dcebf67b4a060c01b610e83565b60008054906101000a900473ffffffffffffffffffffffffffffffffffffffff1673ffffffffffffffffffffffffffffffffffffffff166340c10f1933856040518363ffffffff1660e01b81526004016106c992919061145f565b600060405180830381600087803b1580156106e357600080fd5b505af11580156106f7573d6000803e3d6000fd5b5050505061070f6746d86e9e9e8035fe60c01b610e83565b8260016000828254610721919061155f565b9250508190555061073c6786f020a06ebbd4d260c01b610e83565b6107506776b76f61c10e63f960c01b610e83565b600380811115610763576107626114eb565b5b7f3c6e2d77714d15a40ff87709d1284716a4b5a7b08b88df1cf79f2b7f875452f730338642604051610798949392919061151a565b60405180910390a2505050565b6107b9670419409dbaffd47560c01b610e83565b30816107cf67842438bedd5bc36c60c01b610e83565b6107e3674049900f9bcff55160c01b610e83565b6107f767c920aa3646e5075e60c01b610e83565b61080b6781e4ddf6ada0131e60c01b610e83565b8060008054906101000a900473ffffffffffffffffffffffffffffffffffffffff1673ffffffffffffffffffffffffffffffffffffffff166370a08231846040518263ffffffff1660e01b815260040161086591906111ee565b602060405180830381865afa158015610882573d6000803e3d6000fd5b505050506040513d601f19601f820116820180604052508101906108a6919061121e565b10156108e7576040517f08c379a00000000000000000000000000000000000000000000000000000000081526004016108de906112a8565b60405180910390fd5b6108fb67ad5f32c1d1b236bd60c01b610e83565b61090f676ff19816ee6ad82660c01b610e83565b61092367419ba9dca75949d660c01b610e83565b61093767865ca18e5a1d823160c01b610e83565b61094b67c714488e71b5007c60c01b610e83565b61095f673ef5a169ffbec3e660c01b610e83565b60008054906101000a900473ffffffffffffffffffffffffffffffffffffffff1673ffffffffffffffffffffffffffffffffffffffff166323b872dd3033866040518463ffffffff1660e01b81526004016109bc93929190611593565b6020604051808303816000875af11580156109db573d6000803e3d6000fd5b505050506040513d601f19601f820116820180604052508101906109ff9190611432565b50610a146768bb44fb0fa7366560c01b610e83565b8260016000828254610a26919061155f565b92505081905550610a41679045ab040e61bc7d60c01b610e83565b610a5567aad957f7bc61800360c01b610e83565b60016003811115610a6957610a686114eb565b5b7f3c6e2d77714d15a40ff87709d1284716a4b5a7b08b88df1cf79f2b7f875452f730338642604051610a9e949392919061151a565b60405180910390a2505050565b610abf6725d5f4ce82362b1c60c01b610e83565b3384610ad567842438bedd5bc36c60c01b610e83565b610ae9674049900f9bcff55160c01b610e83565b610afd67c920aa3646e5075e60c01b610e83565b610b116781e4ddf6ada0131e60c01b610e83565b8060008054906101000a900473ffffffffffffffffffffffffffffffffffffffff1673ffffffffffffffffffffffffffffffffffffffff166370a08231846040518263ffffffff1660e01b8152600401610b6b91906111ee565b602060405180830381865afa158015610b88573d6000803e3d6000fd5b505050506040513d601f19601f82011682018060405250810190610bac919061121e565b1015610bed576040517f08c379a0000000000000000000000000000000000000000000000000000000008152600401610be4906112a8565b60405180910390fd5b610c0167ad5f32c1d1b236bd60c01b610e83565b610c15676ff19816ee6ad82660c01b610e83565b610c2967631ec8153b95fe1160c01b610e83565b610c3d67a578f0a1a816589660c01b610e83565b610c51671fe5bad085c5c81a60c01b610e83565b610c6567b4be2413662aa9fb60c01b610e83565b60008054906101000a900473ffffffffffffffffffffffffffffffffffffffff1673ffffffffffffffffffffffffffffffffffffffff16631acbee153330898989896040518763ffffffff1660e01b8152600401610cc89695949392919061138b565b6020604051808303816000875af1158015610ce7573d6000803e3d6000fd5b505050506040513d601f19601f82011682018060405250810190610d0b9190611432565b50610d2067e56bdc545bcd1fe360c01b610e83565b610d3467095a1949dc606f1660c01b610e83565b60008054906101000a900473ffffffffffffffffffffffffffffffffffffffff1673ffffffffffffffffffffffffffffffffffffffff166323b872dd3330896040518463ffffffff1660e01b8152600401610d9193929190611593565b6020604051808303816000875af1158015610db0573d6000803e3d6000fd5b505050506040513d601f19601f82011682018060405250810190610dd49190611432565b50610de96713b4f28ab58dd07a60c01b610e83565b8560016000828254610dfb91906114b7565b92505081905550610e166708be0f7e8c0b877a60c01b610e83565b610e2a67cb55ecce65c1665f60c01b610e83565b60006003811115610e3e57610e3d6114eb565b5b7f3c6e2d77714d15a40ff87709d1284716a4b5a7b08b88df1cf79f2b7f875452f733308942604051610e73949392919061151a565b60405180910390a2505050505050565b50565b6000819050919050565b610e9981610e86565b82525050565b6000602082019050610eb46000830184610e90565b92915050565b6000604051905090565b600080fd5b600080fd5b610ed781610e86565b8114610ee257600080fd5b50565b600081359050610ef481610ece565b92915050565b600080fd5b600080fd5b6000601f19601f8301169050919050565b7f4e487b7100000000000000000000000000000000000000000000000000000000600052604160045260246000fd5b610f4d82610f04565b810181811067ffffffffffffffff82111715610f6c57610f6b610f15565b5b80604052505050565b6000610f7f610eba565b9050610f8b8282610f44565b919050565b600067ffffffffffffffff821115610fab57610faa610f15565b5b610fb482610f04565b9050602081019050919050565b82818337600083830152505050565b6000610fe3610fde84610f90565b610f75565b905082815260208101848484011115610fff57610ffe610eff565b5b61100a848285610fc1565b509392505050565b600082601f83011261102757611026610efa565b5b8135611037848260208601610fd0565b91505092915050565b600067ffffffffffffffff82111561105b5761105a610f15565b5b61106482610f04565b9050602081019050919050565b600061108461107f84611040565b610f75565b9050828152602081018484840111156110a05761109f610eff565b5b6110ab848285610fc1565b509392505050565b600082601f8301126110c8576110c7610efa565b5b81356110d8848260208601611071565b91505092915050565b600080600080608085870312156110fb576110fa610ec4565b5b600061110987828801610ee5565b945050602061111a87828801610ee5565b935050604085013567ffffffffffffffff81111561113b5761113a610ec9565b5b61114787828801611012565b925050606085013567ffffffffffffffff81111561116857611167610ec9565b5b611174878288016110b3565b91505092959194509250565b60006020828403121561119657611195610ec4565b5b60006111a484828501610ee5565b91505092915050565b600073ffffffffffffffffffffffffffffffffffffffff82169050919050565b60006111d8826111ad565b9050919050565b6111e8816111cd565b82525050565b600060208201905061120360008301846111df565b92915050565b60008151905061121881610ece565b92915050565b60006020828403121561123457611233610ec4565b5b600061124284828501611209565b91505092915050565b600082825260208201905092915050565b7f546f6b656e4272696467653a20494e53554646494349454e545f414d4f554e54600082015250565b600061129260208361124b565b915061129d8261125c565b602082019050919050565b600060208201905081810360008301526112c181611285565b9050919050565b600081519050919050565b60005b838110156112f15780820151818401526020810190506112d6565b60008484015250505050565b6000611308826112c8565b611312818561124b565b93506113228185602086016112d3565b61132b81610f04565b840191505092915050565b600081519050919050565b600082825260208201905092915050565b600061135d82611336565b6113678185611341565b93506113778185602086016112d3565b61138081610f04565b840191505092915050565b600060c0820190506113a060008301896111df565b6113ad60208301886111df565b6113ba6040830187610e90565b6113c76060830186610e90565b81810360808301526113d981856112fd565b905081810360a08301526113ed8184611352565b9050979650505050505050565b60008115159050919050565b61140f816113fa565b811461141a57600080fd5b50565b60008151905061142c81611406565b92915050565b60006020828403121561144857611447610ec4565b5b60006114568482850161141d565b91505092915050565b600060408201905061147460008301856111df565b6114816020830184610e90565b9392505050565b7f4e487b7100000000000000000000000000000000000000000000000000000000600052601160045260246000fd5b60006114c282610e86565b91506114cd83610e86565b92508282019050808211156114e5576114e4611488565b5b92915050565b7f4e487b7100000000000000000000000000000000000000000000000000000000600052602160045260246000fd5b600060808201905061152f60008301876111df565b61153c60208301866111df565b6115496040830185610e90565b6115566060830184610e90565b95945050505050565b600061156a82610e86565b915061157583610e86565b925082820390508181111561158d5761158c611488565b5b92915050565b60006060820190506115a860008301866111df565b6115b560208301856111df565b6115c26040830184610e90565b94935050505056fea26469706673582212201568f1c1671d4885cef97e4a6ecbe28f21485469d98bc9406330dce1d53d5fb664736f6c63430008120033",
  "linkReferences": {},
  "deployedLinkReferences": {}
}