{
  "_format": "hh-sol-artifact-1",
  "contractName": "TokenBridge",
  "sourceName": "contracts/TokenBridge.sol",
  "abi": [
    {
      "anonymous": false,
      "inputs": [
        {
          "indexed": false,
          "internalType": "address",
          "name": "from",
          "type": "address"
        },
        {
          "indexed": false,
          "internalType": "address",
          "name": "to",
          "type": "address"
        },
        {
          "indexed": false,
          "internalType": "uint256",
          "name": "amount",
          "type": "uint256"
        },
        {
          "indexed": false,
          "internalType": "uint256",
          "name": "timestamp",
          "type": "uint256"
        },
        {
          "indexed": true,
          "internalType": "enum TokenBridge.Step",
          "name": "step",
          "type": "uint8"
        }
      ],
      "name": "TransferEvent",
      "type": "event"
    },
    {
      "inputs": [
        {
          "internalType": "address",
          "name": "_tokenAddress",
          "type": "address"
        },
        {
          "internalType": "uint256",
          "name": "_amount",
          "type": "uint256"
        },
        {
          "internalType": "uint256",
          "name": "_deadline",
          "type": "uint256"
        },
        {
          "internalType": "bytes32",
          "name": "r",
          "type": "bytes32"
        },
        {
          "internalType": "bytes32",
          "name": "s",
          "type": "bytes32"
        },
        {
          "internalType": "uint8",
          "name": "v",
          "type": "uint8"
        }
      ],
      "name": "burnAmount",
      "outputs": [],
      "stateMutability": "nonpayable",
      "type": "function"
    },
    {
      "inputs": [
        {
          "internalType": "address",
          "name": "_tokenAddress",
          "type": "address"
        },
        {
          "internalType": "uint256",
          "name": "_amount",
          "type": "uint256"
        },
        {
          "internalType": "uint256",
          "name": "_deadline",
          "type": "uint256"
        },
        {
          "internalType": "bytes32",
          "name": "r",
          "type": "bytes32"
        },
        {
          "internalType": "bytes32",
          "name": "s",
          "type": "bytes32"
        },
        {
          "internalType": "uint8",
          "name": "v",
          "type": "uint8"
        }
      ],
      "name": "lockAmount",
      "outputs": [],
      "stateMutability": "nonpayable",
      "type": "function"
    },
    {
      "inputs": [
        {
          "internalType": "address",
          "name": "_tokenAddress",
          "type": "address"
        },
        {
          "internalType": "uint256",
          "name": "_amount",
          "type": "uint256"
        }
      ],
      "name": "mintAmount",
      "outputs": [],
      "stateMutability": "nonpayable",
      "type": "function"
    },
    {
      "inputs": [
        {
          "internalType": "address",
          "name": "_tokenAddress",
          "type": "address"
        },
        {
          "internalType": "uint256",
          "name": "_amount",
          "type": "uint256"
        }
      ],
      "name": "unlockAmount",
      "outputs": [],
      "stateMutability": "nonpayable",
      "type": "function"
    }
  ],
  "bytecode": "0x608060405234801561001057600080fd5b50610dcb806100206000396000f3fe608060405234801561001057600080fd5b506004361061004c5760003560e01c80630e583dd21461005157806322e2b31f1461006d578063821c9f6414610089578063d03f5c7b146100a5575b600080fd5b61006b60048036038101906100669190610a00565b6100c1565b005b61008760048036038101906100829190610a00565b6101e6565b005b6100a3600480360381019061009e9190610aaf565b61030c565b005b6100bf60048036038101906100ba9190610aaf565b610637565b005b6100d567a010b6ebb8e54f7c60c01b610964565b6100e967e2f90dcebf67b4a060c01b610964565b6100fd6746d86e9e9e8035fe60c01b610964565b8173ffffffffffffffffffffffffffffffffffffffff166379c6506833836040518363ffffffff1660e01b8152600401610138929190610b5a565b600060405180830381600087803b15801561015257600080fd5b505af1158015610166573d6000803e3d6000fd5b5050505061017e6786f020a06ebbd4d260c01b610964565b6101926776b76f61c10e63f960c01b610964565b6003808111156101a5576101a4610b83565b5b7f3c6e2d77714d15a40ff87709d1284716a4b5a7b08b88df1cf79f2b7f875452f7303384426040516101da9493929190610bb2565b60405180910390a25050565b6101fa67aad957f7bc61800360c01b610964565b61020e6722f05545a8fac0cc60c01b610964565b61022267d3356b61a2b6680260c01b610964565b8173ffffffffffffffffffffffffffffffffffffffff1663a9059cbb33836040518363ffffffff1660e01b815260040161025d929190610b5a565b600060405180830381600087803b15801561027757600080fd5b505af115801561028b573d6000803e3d6000fd5b505050506102a367f5fba43e1b43d61a60c01b610964565b6102b76788a266645af1b22b60c01b610964565b600160038111156102cb576102ca610b83565b5b7f3c6e2d77714d15a40ff87709d1284716a4b5a7b08b88df1cf79f2b7f875452f7303384426040516103009493929190610bb2565b60405180910390a25050565b61032067cb7f97f942c3b99a60c01b610964565b85338661033767a578f0a1a816589660c01b610964565b61034b671fe5bad085c5c81a60c01b610964565b61035f67b4be2413662aa9fb60c01b610964565b61037367e56bdc545bcd1fe360c01b610964565b808373ffffffffffffffffffffffffffffffffffffffff166370a08231846040518263ffffffff1660e01b81526004016103ad9190610bf7565b602060405180830381865afa1580156103ca573d6000803e3d6000fd5b505050506040513d601f19601f820116820180604052508101906103ee9190610c27565b101561042f576040517f08c379a000000000000000000000000000000000000000000000000000000000815260040161042690610cb1565b60405180910390fd5b61044367095a1949dc606f1660c01b610964565b6104576713b4f28ab58dd07a60c01b610964565b61046b679761bbf803279e0e60c01b610964565b61047f67cba933b3c775c7b560c01b610964565b61049367385be15c7be0cf4c60c01b610964565b6104a767e73e6d625b44a08e60c01b610964565b8873ffffffffffffffffffffffffffffffffffffffff1663d505accf33308b8b898c8c6040518863ffffffff1660e01b81526004016104ec9796959493929190610cef565b600060405180830381600087803b15801561050657600080fd5b505af115801561051a573d6000803e3d6000fd5b50505050610532679b4a564174deb3b560c01b610964565b610546670c37042296ddaa5960c01b610964565b8873ffffffffffffffffffffffffffffffffffffffff1663d1df306c338a6040518363ffffffff1660e01b8152600401610581929190610b5a565b600060405180830381600087803b15801561059b57600080fd5b505af11580156105af573d6000803e3d6000fd5b505050506105c7674ba5dea49f17233f60c01b610964565b6105db67b5736e6fdb8a2e8360c01b610964565b600260038111156105ef576105ee610b83565b5b7f3c6e2d77714d15a40ff87709d1284716a4b5a7b08b88df1cf79f2b7f875452f733308b426040516106249493929190610bb2565b60405180910390a2505050505050505050565b61064b679253298f5d65057960c01b610964565b85338661066267a578f0a1a816589660c01b610964565b610676671fe5bad085c5c81a60c01b610964565b61068a67b4be2413662aa9fb60c01b610964565b61069e67e56bdc545bcd1fe360c01b610964565b808373ffffffffffffffffffffffffffffffffffffffff166370a08231846040518263ffffffff1660e01b81526004016106d89190610bf7565b602060405180830381865afa1580156106f5573d6000803e3d6000fd5b505050506040513d601f19601f820116820180604052508101906107199190610c27565b101561075a576040517f08c379a000000000000000000000000000000000000000000000000000000000815260040161075190610cb1565b60405180910390fd5b61076e67095a1949dc606f1660c01b610964565b6107826713b4f28ab58dd07a60c01b610964565b6107966726638251174bb29960c01b610964565b6107aa67454723dfcd9ec09f60c01b610964565b6107be6716615c170476baa760c01b610964565b6107d267865ca18e5a1d823160c01b610964565b8873ffffffffffffffffffffffffffffffffffffffff1663d505accf33308b8b898c8c6040518863ffffffff1660e01b81526004016108179796959493929190610cef565b600060405180830381600087803b15801561083157600080fd5b505af1158015610845573d6000803e3d6000fd5b5050505061085d67c714488e71b5007c60c01b610964565b610871673ef5a169ffbec3e660c01b610964565b8873ffffffffffffffffffffffffffffffffffffffff166323b872dd33308b6040518463ffffffff1660e01b81526004016108ae93929190610d5e565b600060405180830381600087803b1580156108c857600080fd5b505af11580156108dc573d6000803e3d6000fd5b505050506108f46768bb44fb0fa7366560c01b610964565b610908679045ab040e61bc7d60c01b610964565b6000600381111561091c5761091b610b83565b5b7f3c6e2d77714d15a40ff87709d1284716a4b5a7b08b88df1cf79f2b7f875452f733308b426040516109519493929190610bb2565b60405180910390a2505050505050505050565b50565b600080fd5b600073ffffffffffffffffffffffffffffffffffffffff82169050919050565b60006109978261096c565b9050919050565b6109a78161098c565b81146109b257600080fd5b50565b6000813590506109c48161099e565b92915050565b6000819050919050565b6109dd816109ca565b81146109e857600080fd5b50565b6000813590506109fa816109d4565b92915050565b60008060408385031215610a1757610a16610967565b5b6000610a25858286016109b5565b9250506020610a36858286016109eb565b9150509250929050565b6000819050919050565b610a5381610a40565b8114610a5e57600080fd5b50565b600081359050610a7081610a4a565b92915050565b600060ff82169050919050565b610a8c81610a76565b8114610a9757600080fd5b50565b600081359050610aa981610a83565b92915050565b60008060008060008060c08789031215610acc57610acb610967565b5b6000610ada89828a016109b5565b9650506020610aeb89828a016109eb565b9550506040610afc89828a016109eb565b9450506060610b0d89828a01610a61565b9350506080610b1e89828a01610a61565b92505060a0610b2f89828a01610a9a565b9150509295509295509295565b610b458161098c565b82525050565b610b54816109ca565b82525050565b6000604082019050610b6f6000830185610b3c565b610b7c6020830184610b4b565b9392505050565b7f4e487b7100000000000000000000000000000000000000000000000000000000600052602160045260246000fd5b6000608082019050610bc76000830187610b3c565b610bd46020830186610b3c565b610be16040830185610b4b565b610bee6060830184610b4b565b95945050505050565b6000602082019050610c0c6000830184610b3c565b92915050565b600081519050610c21816109d4565b92915050565b600060208284031215610c3d57610c3c610967565b5b6000610c4b84828501610c12565b91505092915050565b600082825260208201905092915050565b7f546f6b656e4272696467653a20696e73756666696369656e7420616d6f756e74600082015250565b6000610c9b602083610c54565b9150610ca682610c65565b602082019050919050565b60006020820190508181036000830152610cca81610c8e565b9050919050565b610cda81610a76565b82525050565b610ce981610a40565b82525050565b600060e082019050610d04600083018a610b3c565b610d116020830189610b3c565b610d1e6040830188610b4b565b610d2b6060830187610b4b565b610d386080830186610cd1565b610d4560a0830185610ce0565b610d5260c0830184610ce0565b98975050505050505050565b6000606082019050610d736000830186610b3c565b610d806020830185610b3c565b610d8d6040830184610b4b565b94935050505056fea264697066735822122004f40983bd0f9b6421c4ed7d432af80cde26b16401792bdc5961ae8ce616fb2064736f6c63430008120033",
  "linkReferences": {},
  "deployedLinkReferences": {}
}