{
  "_format": "hh-sol-artifact-1",
  "contractName": "TokenBridge",
  "sourceName": "contracts/TokenBridge.sol",
  "abi": [
    {
      "anonymous": false,
      "inputs": [
        {
          "indexed": false,
          "internalType": "address",
          "name": "from",
          "type": "address"
        },
        {
          "indexed": false,
          "internalType": "address",
          "name": "to",
          "type": "address"
        },
        {
          "indexed": false,
          "internalType": "uint256",
          "name": "amount",
          "type": "uint256"
        },
        {
          "indexed": false,
          "internalType": "uint256",
          "name": "timestamp",
          "type": "uint256"
        },
        {
          "indexed": true,
          "internalType": "enum TokenBridge.Step",
          "name": "step",
          "type": "uint8"
        }
      ],
      "name": "TransferEvent",
      "type": "event"
    },
    {
      "inputs": [
        {
          "internalType": "address",
          "name": "_tokenAddress",
          "type": "address"
        },
        {
          "internalType": "uint256",
          "name": "_amount",
          "type": "uint256"
        },
        {
          "internalType": "uint256",
          "name": "_deadline",
          "type": "uint256"
        },
        {
          "internalType": "bytes",
          "name": "_signature",
          "type": "bytes"
        }
      ],
      "name": "burnAmount",
      "outputs": [],
      "stateMutability": "nonpayable",
      "type": "function"
    },
    {
      "inputs": [
        {
          "internalType": "address",
          "name": "_tokenAddress",
          "type": "address"
        },
        {
          "internalType": "uint256",
          "name": "_amount",
          "type": "uint256"
        },
        {
          "internalType": "uint256",
          "name": "_deadline",
          "type": "uint256"
        },
        {
          "internalType": "bytes",
          "name": "_signature",
          "type": "bytes"
        }
      ],
      "name": "lockAmount",
      "outputs": [],
      "stateMutability": "nonpayable",
      "type": "function"
    },
    {
      "inputs": [
        {
          "internalType": "address",
          "name": "_tokenAddress",
          "type": "address"
        },
        {
          "internalType": "uint256",
          "name": "_amount",
          "type": "uint256"
        }
      ],
      "name": "mintAmount",
      "outputs": [],
      "stateMutability": "nonpayable",
      "type": "function"
    },
    {
      "inputs": [
        {
          "internalType": "address",
          "name": "_tokenAddress",
          "type": "address"
        },
        {
          "internalType": "uint256",
          "name": "_amount",
          "type": "uint256"
        }
      ],
      "name": "unlockAmount",
      "outputs": [],
      "stateMutability": "nonpayable",
      "type": "function"
    }
  ],
  "bytecode": "0x608060405234801561001057600080fd5b50611138806100206000396000f3fe608060405234801561001057600080fd5b506004361061004c5760003560e01c80630e583dd21461005157806322e2b31f1461006d5780632c95b09514610089578063a5b5e7b4146100a5575b600080fd5b61006b60048036038101906100669190610c1d565b6100c1565b005b61008760048036038101906100829190610c1d565b6101e6565b005b6100a3600480360381019061009e9190610da3565b61030e565b005b6100bf60048036038101906100ba9190610da3565b610678565b005b6100d567aad957f7bc61800360c01b6109e0565b6100e96722f05545a8fac0cc60c01b6109e0565b6100fd67d3356b61a2b6680260c01b6109e0565b8173ffffffffffffffffffffffffffffffffffffffff166379c6506833836040518363ffffffff1660e01b8152600401610138929190610e44565b600060405180830381600087803b15801561015257600080fd5b505af1158015610166573d6000803e3d6000fd5b5050505061017e67f5fba43e1b43d61a60c01b6109e0565b6101926788a266645af1b22b60c01b6109e0565b6003808111156101a5576101a4610e6d565b5b7f3c6e2d77714d15a40ff87709d1284716a4b5a7b08b88df1cf79f2b7f875452f7303384426040516101da9493929190610e9c565b60405180910390a25050565b6101fa67c0ad803f4e8011c460c01b6109e0565b61020e67a578f0a1a816589660c01b6109e0565b610222671fe5bad085c5c81a60c01b6109e0565b8173ffffffffffffffffffffffffffffffffffffffff166323b872dd3033846040518463ffffffff1660e01b815260040161025f93929190610ee1565b600060405180830381600087803b15801561027957600080fd5b505af115801561028d573d6000803e3d6000fd5b505050506102a567b4be2413662aa9fb60c01b6109e0565b6102b967e56bdc545bcd1fe360c01b6109e0565b600160038111156102cd576102cc610e6d565b5b7f3c6e2d77714d15a40ff87709d1284716a4b5a7b08b88df1cf79f2b7f875452f7303384426040516103029493929190610e9c565b60405180910390a25050565b610322676d076ddb2ef86e9860c01b6109e0565b83338461033967ba8d4ae451b562b160c01b6109e0565b61034d6748e949ecb93f05d160c01b6109e0565b6103616750bb6ff4b4e1ae8660c01b6109e0565b610375676245ba06b7ef2a0360c01b6109e0565b808373ffffffffffffffffffffffffffffffffffffffff166370a08231846040518263ffffffff1660e01b81526004016103af9190610f18565b602060405180830381865afa1580156103cc573d6000803e3d6000fd5b505050506040513d601f19601f820116820180604052508101906103f09190610f48565b1015610431576040517f08c379a000000000000000000000000000000000000000000000000000000000815260040161042890610fd2565b60405180910390fd5b610445679c18bb19b2e34aad60c01b6109e0565b61045967c8c84e24e3c8e0c960c01b6109e0565b61046d673da7ac88880a776460c01b6109e0565b610481677a180e3e6866efff60c01b6109e0565b6104956736f57e8d528b2b6460c01b6109e0565b6104a967842438bedd5bc36c60c01b6109e0565b60008060006104b7876109e3565b9250925092506104d1674049900f9bcff55160c01b6109e0565b6104e567c920aa3646e5075e60c01b6109e0565b8973ffffffffffffffffffffffffffffffffffffffff166306518f4533308c8c8689896040518863ffffffff1660e01b815260040161052a9796959493929190611027565b600060405180830381600087803b15801561054457600080fd5b505af1158015610558573d6000803e3d6000fd5b505050506105706781e4ddf6ada0131e60c01b6109e0565b61058467ad5f32c1d1b236bd60c01b6109e0565b8973ffffffffffffffffffffffffffffffffffffffff166323b872dd33308c6040518463ffffffff1660e01b81526004016105c193929190610ee1565b600060405180830381600087803b1580156105db57600080fd5b505af11580156105ef573d6000803e3d6000fd5b50505050610607676ff19816ee6ad82660c01b6109e0565b61061b67387761607b41b05e60c01b6109e0565b6000600381111561062f5761062e610e6d565b5b7f3c6e2d77714d15a40ff87709d1284716a4b5a7b08b88df1cf79f2b7f875452f733308c426040516106649493929190610e9c565b60405180910390a250505050505050505050565b61068c67263c1396d16b448e60c01b6109e0565b8333846106a367ba8d4ae451b562b160c01b6109e0565b6106b76748e949ecb93f05d160c01b6109e0565b6106cb6750bb6ff4b4e1ae8660c01b6109e0565b6106df676245ba06b7ef2a0360c01b6109e0565b808373ffffffffffffffffffffffffffffffffffffffff166370a08231846040518263ffffffff1660e01b81526004016107199190610f18565b602060405180830381865afa158015610736573d6000803e3d6000fd5b505050506040513d601f19601f8201168201806040525081019061075a9190610f48565b101561079b576040517f08c379a000000000000000000000000000000000000000000000000000000000815260040161079290610fd2565b60405180910390fd5b6107af679c18bb19b2e34aad60c01b6109e0565b6107c367c8c84e24e3c8e0c960c01b6109e0565b6107d7670f8a07044a3f868260c01b6109e0565b6107eb6708be0f7e8c0b877a60c01b6109e0565b6107ff67cb55ecce65c1665f60c01b6109e0565b61081367454723dfcd9ec09f60c01b6109e0565b6000806000610821876109e3565b92509250925061083b6716615c170476baa760c01b6109e0565b61084f67865ca18e5a1d823160c01b6109e0565b8973ffffffffffffffffffffffffffffffffffffffff166306518f4533308c8c8689896040518863ffffffff1660e01b81526004016108949796959493929190611027565b600060405180830381600087803b1580156108ae57600080fd5b505af11580156108c2573d6000803e3d6000fd5b505050506108da67c714488e71b5007c60c01b6109e0565b6108ee673ef5a169ffbec3e660c01b6109e0565b8973ffffffffffffffffffffffffffffffffffffffff1663d1df306c338b6040518363ffffffff1660e01b8152600401610929929190610e44565b600060405180830381600087803b15801561094357600080fd5b505af1158015610957573d6000803e3d6000fd5b5050505061096f6768bb44fb0fa7366560c01b6109e0565b610983679045ab040e61bc7d60c01b6109e0565b6002600381111561099757610996610e6d565b5b7f3c6e2d77714d15a40ff87709d1284716a4b5a7b08b88df1cf79f2b7f875452f733308c426040516109cc9493929190610e9c565b60405180910390a250505050505050505050565b50565b60008060006109fc679580ddc0a498f8b360c01b6109e0565b610a10670355c1ad64268c2060c01b6109e0565b610a2467cba933b3c775c7b560c01b6109e0565b610a3867385be15c7be0cf4c60c01b6109e0565b6041845114610a7c576040517f08c379a0000000000000000000000000000000000000000000000000000000008152600401610a73906110e2565b60405180910390fd5b610a9067e73e6d625b44a08e60c01b6109e0565b610aa4679b4a564174deb3b560c01b6109e0565b610ab8670c37042296ddaa5960c01b6109e0565b6000610ace674ba5dea49f17233f60c01b6109e0565b610ae267b5736e6fdb8a2e8360c01b6109e0565b6000610af867a010b6ebb8e54f7c60c01b6109e0565b610b0c67e2f90dcebf67b4a060c01b6109e0565b6000610b226746d86e9e9e8035fe60c01b6109e0565b6020870151925060408701519150606087015160001a9050610b4e6786f020a06ebbd4d260c01b6109e0565b610b626776b76f61c10e63f960c01b6109e0565b8282829550955095505050509193909250565b6000604051905090565b600080fd5b600080fd5b600073ffffffffffffffffffffffffffffffffffffffff82169050919050565b6000610bb482610b89565b9050919050565b610bc481610ba9565b8114610bcf57600080fd5b50565b600081359050610be181610bbb565b92915050565b6000819050919050565b610bfa81610be7565b8114610c0557600080fd5b50565b600081359050610c1781610bf1565b92915050565b60008060408385031215610c3457610c33610b7f565b5b6000610c4285828601610bd2565b9250506020610c5385828601610c08565b9150509250929050565b600080fd5b600080fd5b6000601f19601f8301169050919050565b7f4e487b7100000000000000000000000000000000000000000000000000000000600052604160045260246000fd5b610cb082610c67565b810181811067ffffffffffffffff82111715610ccf57610cce610c78565b5b80604052505050565b6000610ce2610b75565b9050610cee8282610ca7565b919050565b600067ffffffffffffffff821115610d0e57610d0d610c78565b5b610d1782610c67565b9050602081019050919050565b82818337600083830152505050565b6000610d46610d4184610cf3565b610cd8565b905082815260208101848484011115610d6257610d61610c62565b5b610d6d848285610d24565b509392505050565b600082601f830112610d8a57610d89610c5d565b5b8135610d9a848260208601610d33565b91505092915050565b60008060008060808587031215610dbd57610dbc610b7f565b5b6000610dcb87828801610bd2565b9450506020610ddc87828801610c08565b9350506040610ded87828801610c08565b925050606085013567ffffffffffffffff811115610e0e57610e0d610b84565b5b610e1a87828801610d75565b91505092959194509250565b610e2f81610ba9565b82525050565b610e3e81610be7565b82525050565b6000604082019050610e596000830185610e26565b610e666020830184610e35565b9392505050565b7f4e487b7100000000000000000000000000000000000000000000000000000000600052602160045260246000fd5b6000608082019050610eb16000830187610e26565b610ebe6020830186610e26565b610ecb6040830185610e35565b610ed86060830184610e35565b95945050505050565b6000606082019050610ef66000830186610e26565b610f036020830185610e26565b610f106040830184610e35565b949350505050565b6000602082019050610f2d6000830184610e26565b92915050565b600081519050610f4281610bf1565b92915050565b600060208284031215610f5e57610f5d610b7f565b5b6000610f6c84828501610f33565b91505092915050565b600082825260208201905092915050565b7f546f6b656e4272696467653a20494e53554646494349454e545f414d4f554e54600082015250565b6000610fbc602083610f75565b9150610fc782610f86565b602082019050919050565b60006020820190508181036000830152610feb81610faf565b9050919050565b600060ff82169050919050565b61100881610ff2565b82525050565b6000819050919050565b6110218161100e565b82525050565b600060e08201905061103c600083018a610e26565b6110496020830189610e26565b6110566040830188610e35565b6110636060830187610e35565b6110706080830186610fff565b61107d60a0830185611018565b61108a60c0830184611018565b98975050505050505050565b7f53706c69745369676e61747572653a20494e56414c49445f4c454e4754480000600082015250565b60006110cc601e83610f75565b91506110d782611096565b602082019050919050565b600060208201905081810360008301526110fb816110bf565b905091905056fea26469706673582212202e11196264143dc21d94d405c99a3d684e931eeab987357b1f6ce9ef25d7b4b464736f6c63430008120033",
  "linkReferences": {},
  "deployedLinkReferences": {}
}