{
  "_format": "hh-sol-artifact-1",
  "contractName": "TokenBridge",
  "sourceName": "contracts/TokenBridge.sol",
  "abi": [
    {
      "anonymous": false,
      "inputs": [
        {
          "indexed": false,
          "internalType": "address",
          "name": "from",
          "type": "address"
        },
        {
          "indexed": false,
          "internalType": "address",
          "name": "to",
          "type": "address"
        },
        {
          "indexed": false,
          "internalType": "uint256",
          "name": "amount",
          "type": "uint256"
        },
        {
          "indexed": false,
          "internalType": "uint256",
          "name": "timestamp",
          "type": "uint256"
        },
        {
          "indexed": true,
          "internalType": "enum TokenBridge.Step",
          "name": "step",
          "type": "uint8"
        }
      ],
      "name": "TransferEvent",
      "type": "event"
    },
    {
      "inputs": [
        {
          "internalType": "address",
          "name": "_tokenAddress",
          "type": "address"
        },
        {
          "internalType": "uint256",
          "name": "_amount",
          "type": "uint256"
        },
        {
          "internalType": "uint256",
          "name": "_deadline",
          "type": "uint256"
        },
        {
          "internalType": "bytes32",
          "name": "r",
          "type": "bytes32"
        },
        {
          "internalType": "bytes32",
          "name": "s",
          "type": "bytes32"
        },
        {
          "internalType": "uint8",
          "name": "v",
          "type": "uint8"
        }
      ],
      "name": "burnAmount",
      "outputs": [],
      "stateMutability": "nonpayable",
      "type": "function"
    },
    {
      "inputs": [
        {
          "internalType": "address",
          "name": "_tokenAddress",
          "type": "address"
        },
        {
          "internalType": "uint256",
          "name": "_amount",
          "type": "uint256"
        },
        {
          "internalType": "uint256",
          "name": "_deadline",
          "type": "uint256"
        },
        {
          "internalType": "bytes32",
          "name": "r",
          "type": "bytes32"
        },
        {
          "internalType": "bytes32",
          "name": "s",
          "type": "bytes32"
        },
        {
          "internalType": "uint8",
          "name": "v",
          "type": "uint8"
        }
      ],
      "name": "lockAmount",
      "outputs": [],
      "stateMutability": "nonpayable",
      "type": "function"
    },
    {
      "inputs": [
        {
          "internalType": "address",
          "name": "_tokenAddress",
          "type": "address"
        },
        {
          "internalType": "uint256",
          "name": "_amount",
          "type": "uint256"
        }
      ],
      "name": "mintAmount",
      "outputs": [],
      "stateMutability": "nonpayable",
      "type": "function"
    },
    {
      "inputs": [
        {
          "internalType": "address",
          "name": "_tokenAddress",
          "type": "address"
        },
        {
          "internalType": "uint256",
          "name": "_amount",
          "type": "uint256"
        }
      ],
      "name": "unlockAmount",
      "outputs": [],
      "stateMutability": "nonpayable",
      "type": "function"
    }
  ],
  "bytecode": "0x608060405234801561001057600080fd5b50610dca806100206000396000f3fe608060405234801561001057600080fd5b506004361061004c5760003560e01c80630e583dd21461005157806322e2b31f1461006d578063821c9f6414610089578063d03f5c7b146100a5575b600080fd5b61006b600480360381019061006691906109ff565b6100c1565b005b610087600480360381019061008291906109ff565b6101e6565b005b6100a3600480360381019061009e9190610aae565b61030b565b005b6100bf60048036038101906100ba9190610aae565b610636565b005b6100d56753a5a93d4a71a78960c01b610963565b6100e96738bac5ec48cec08760c01b610963565b6100fd679968b2acf704ff9d60c01b610963565b8173ffffffffffffffffffffffffffffffffffffffff166379c6506833836040518363ffffffff1660e01b8152600401610138929190610b59565b600060405180830381600087803b15801561015257600080fd5b505af1158015610166573d6000803e3d6000fd5b5050505061017e6770c80d34dd76fd4b60c01b610963565b61019267ea6b292ecdedff1c60c01b610963565b6003808111156101a5576101a4610b82565b5b7f3c6e2d77714d15a40ff87709d1284716a4b5a7b08b88df1cf79f2b7f875452f7303384426040516101da9493929190610bb1565b60405180910390a25050565b6101fa674861b1cd884d880c60c01b610963565b61020e6777b3e1a2f442b99860c01b610963565b610222672e2d916ab1df0c5e60c01b610963565b8173ffffffffffffffffffffffffffffffffffffffff1663a9059cbb33836040518363ffffffff1660e01b815260040161025d929190610b59565b600060405180830381600087803b15801561027757600080fd5b505af115801561028b573d6000803e3d6000fd5b505050506102a266841688bcec016a60c01b610963565b6102b6673eacfe0b16cc8edc60c01b610963565b600160038111156102ca576102c9610b82565b5b7f3c6e2d77714d15a40ff87709d1284716a4b5a7b08b88df1cf79f2b7f875452f7303384426040516102ff9493929190610bb1565b60405180910390a25050565b61031f670c2f74a28d69f29b60c01b610963565b85338661033667e5f8b4a82c0b5ec960c01b610963565b61034a677aabc39f1046cc8060c01b610963565b61035e67a7321d6998744b8460c01b610963565b61037267a57b18c50088b25460c01b610963565b808373ffffffffffffffffffffffffffffffffffffffff166370a08231846040518263ffffffff1660e01b81526004016103ac9190610bf6565b602060405180830381865afa1580156103c9573d6000803e3d6000fd5b505050506040513d601f19601f820116820180604052508101906103ed9190610c26565b101561042e576040517f08c379a000000000000000000000000000000000000000000000000000000000815260040161042590610cb0565b60405180910390fd5b61044267309958b32722e63860c01b610963565b61045667d1c10d653a07324b60c01b610963565b61046a675fc963f3b91a62b460c01b610963565b61047e679eb923a95deb0b7960c01b610963565b610492679014a66b4831fd5a60c01b610963565b6104a6678f3528cc2a40286260c01b610963565b8873ffffffffffffffffffffffffffffffffffffffff1663d505accf33308b8b898c8c6040518863ffffffff1660e01b81526004016104eb9796959493929190610cee565b600060405180830381600087803b15801561050557600080fd5b505af1158015610519573d6000803e3d6000fd5b50505050610531674978c9d53127088d60c01b610963565b610545672a8de2c41d26c8de60c01b610963565b8873ffffffffffffffffffffffffffffffffffffffff1663d1df306c338a6040518363ffffffff1660e01b8152600401610580929190610b59565b600060405180830381600087803b15801561059a57600080fd5b505af11580156105ae573d6000803e3d6000fd5b505050506105c66721941c578741ae2260c01b610963565b6105da6721c8057660058e9f60c01b610963565b600260038111156105ee576105ed610b82565b5b7f3c6e2d77714d15a40ff87709d1284716a4b5a7b08b88df1cf79f2b7f875452f733308b426040516106239493929190610bb1565b60405180910390a2505050505050505050565b61064a670789c6deb29af31360c01b610963565b85338661066167e5f8b4a82c0b5ec960c01b610963565b610675677aabc39f1046cc8060c01b610963565b61068967a7321d6998744b8460c01b610963565b61069d67a57b18c50088b25460c01b610963565b808373ffffffffffffffffffffffffffffffffffffffff166370a08231846040518263ffffffff1660e01b81526004016106d79190610bf6565b602060405180830381865afa1580156106f4573d6000803e3d6000fd5b505050506040513d601f19601f820116820180604052508101906107189190610c26565b1015610759576040517f08c379a000000000000000000000000000000000000000000000000000000000815260040161075090610cb0565b60405180910390fd5b61076d67309958b32722e63860c01b610963565b61078167d1c10d653a07324b60c01b610963565b6107956729266151b468413760c01b610963565b6107a9676de2ce71c459103760c01b610963565b6107bd672a2a67ebdcb6e9f060c01b610963565b6107d167746533788846e63460c01b610963565b8873ffffffffffffffffffffffffffffffffffffffff1663d505accf33308b8b898c8c6040518863ffffffff1660e01b81526004016108169796959493929190610cee565b600060405180830381600087803b15801561083057600080fd5b505af1158015610844573d6000803e3d6000fd5b5050505061085c67c200e6b01f6267e560c01b610963565b610870674f7b98d9c6fb0c9760c01b610963565b8873ffffffffffffffffffffffffffffffffffffffff166323b872dd33308b6040518463ffffffff1660e01b81526004016108ad93929190610d5d565b600060405180830381600087803b1580156108c757600080fd5b505af11580156108db573d6000803e3d6000fd5b505050506108f367569ec2c2b2938d4060c01b610963565b61090767cb29daa9c33df9af60c01b610963565b6000600381111561091b5761091a610b82565b5b7f3c6e2d77714d15a40ff87709d1284716a4b5a7b08b88df1cf79f2b7f875452f733308b426040516109509493929190610bb1565b60405180910390a2505050505050505050565b50565b600080fd5b600073ffffffffffffffffffffffffffffffffffffffff82169050919050565b60006109968261096b565b9050919050565b6109a68161098b565b81146109b157600080fd5b50565b6000813590506109c38161099d565b92915050565b6000819050919050565b6109dc816109c9565b81146109e757600080fd5b50565b6000813590506109f9816109d3565b92915050565b60008060408385031215610a1657610a15610966565b5b6000610a24858286016109b4565b9250506020610a35858286016109ea565b9150509250929050565b6000819050919050565b610a5281610a3f565b8114610a5d57600080fd5b50565b600081359050610a6f81610a49565b92915050565b600060ff82169050919050565b610a8b81610a75565b8114610a9657600080fd5b50565b600081359050610aa881610a82565b92915050565b60008060008060008060c08789031215610acb57610aca610966565b5b6000610ad989828a016109b4565b9650506020610aea89828a016109ea565b9550506040610afb89828a016109ea565b9450506060610b0c89828a01610a60565b9350506080610b1d89828a01610a60565b92505060a0610b2e89828a01610a99565b9150509295509295509295565b610b448161098b565b82525050565b610b53816109c9565b82525050565b6000604082019050610b6e6000830185610b3b565b610b7b6020830184610b4a565b9392505050565b7f4e487b7100000000000000000000000000000000000000000000000000000000600052602160045260246000fd5b6000608082019050610bc66000830187610b3b565b610bd36020830186610b3b565b610be06040830185610b4a565b610bed6060830184610b4a565b95945050505050565b6000602082019050610c0b6000830184610b3b565b92915050565b600081519050610c20816109d3565b92915050565b600060208284031215610c3c57610c3b610966565b5b6000610c4a84828501610c11565b91505092915050565b600082825260208201905092915050565b7f546f6b656e4272696467653a20696e73756666696369656e7420616d6f756e74600082015250565b6000610c9a602083610c53565b9150610ca582610c64565b602082019050919050565b60006020820190508181036000830152610cc981610c8d565b9050919050565b610cd981610a75565b82525050565b610ce881610a3f565b82525050565b600060e082019050610d03600083018a610b3b565b610d106020830189610b3b565b610d1d6040830188610b4a565b610d2a6060830187610b4a565b610d376080830186610cd0565b610d4460a0830185610cdf565b610d5160c0830184610cdf565b98975050505050505050565b6000606082019050610d726000830186610b3b565b610d7f6020830185610b3b565b610d8c6040830184610b4a565b94935050505056fea2646970667358221220c1690c39b42912634f0a35b1a1a8804edcfbe8e031311479525b1663dc79641a64736f6c63430008120033",
  "linkReferences": {},
  "deployedLinkReferences": {}
}