{
  "_format": "hh-sol-artifact-1",
  "contractName": "WERC20",
  "sourceName": "contracts/WERC20.sol",
  "abi": [
    {
      "inputs": [
        {
          "internalType": "address",
          "name": "_bridgeAddress",
          "type": "address"
        },
        {
          "internalType": "uint256",
          "name": "_initialAmount",
          "type": "uint256"
        },
        {
          "internalType": "string",
          "name": "_tokenName",
          "type": "string"
        },
        {
          "internalType": "string",
          "name": "_tokenSymbol",
          "type": "string"
        }
      ],
      "stateMutability": "nonpayable",
      "type": "constructor"
    },
    {
      "inputs": [],
      "name": "InvalidShortString",
      "type": "error"
    },
    {
      "inputs": [
        {
          "internalType": "string",
          "name": "str",
          "type": "string"
        }
      ],
      "name": "StringTooLong",
      "type": "error"
    },
    {
      "anonymous": false,
      "inputs": [
        {
          "indexed": true,
          "internalType": "address",
          "name": "owner",
          "type": "address"
        },
        {
          "indexed": true,
          "internalType": "address",
          "name": "spender",
          "type": "address"
        },
        {
          "indexed": false,
          "internalType": "uint256",
          "name": "value",
          "type": "uint256"
        }
      ],
      "name": "Approval",
      "type": "event"
    },
    {
      "anonymous": false,
      "inputs": [],
      "name": "EIP712DomainChanged",
      "type": "event"
    },
    {
      "anonymous": false,
      "inputs": [
        {
          "indexed": true,
          "internalType": "address",
          "name": "previousOwner",
          "type": "address"
        },
        {
          "indexed": true,
          "internalType": "address",
          "name": "newOwner",
          "type": "address"
        }
      ],
      "name": "OwnershipTransferred",
      "type": "event"
    },
    {
      "anonymous": false,
      "inputs": [
        {
          "indexed": true,
          "internalType": "address",
          "name": "from",
          "type": "address"
        },
        {
          "indexed": true,
          "internalType": "address",
          "name": "to",
          "type": "address"
        },
        {
          "indexed": false,
          "internalType": "uint256",
          "name": "value",
          "type": "uint256"
        }
      ],
      "name": "Transfer",
      "type": "event"
    },
    {
      "inputs": [],
      "name": "DOMAIN_SEPARATOR",
      "outputs": [
        {
          "internalType": "bytes32",
          "name": "",
          "type": "bytes32"
        }
      ],
      "stateMutability": "view",
      "type": "function"
    },
    {
      "inputs": [
        {
          "internalType": "address",
          "name": "owner",
          "type": "address"
        },
        {
          "internalType": "address",
          "name": "spender",
          "type": "address"
        }
      ],
      "name": "allowance",
      "outputs": [
        {
          "internalType": "uint256",
          "name": "",
          "type": "uint256"
        }
      ],
      "stateMutability": "view",
      "type": "function"
    },
    {
      "inputs": [
        {
          "internalType": "address",
          "name": "spender",
          "type": "address"
        },
        {
          "internalType": "uint256",
          "name": "amount",
          "type": "uint256"
        }
      ],
      "name": "approve",
      "outputs": [
        {
          "internalType": "bool",
          "name": "",
          "type": "bool"
        }
      ],
      "stateMutability": "nonpayable",
      "type": "function"
    },
    {
      "inputs": [
        {
          "internalType": "address",
          "name": "account",
          "type": "address"
        }
      ],
      "name": "balanceOf",
      "outputs": [
        {
          "internalType": "uint256",
          "name": "",
          "type": "uint256"
        }
      ],
      "stateMutability": "view",
      "type": "function"
    },
    {
      "inputs": [
        {
          "internalType": "address",
          "name": "_from",
          "type": "address"
        },
        {
          "internalType": "uint256",
          "name": "_amount",
          "type": "uint256"
        }
      ],
      "name": "burnToken",
      "outputs": [],
      "stateMutability": "nonpayable",
      "type": "function"
    },
    {
      "inputs": [],
      "name": "decimals",
      "outputs": [
        {
          "internalType": "uint8",
          "name": "",
          "type": "uint8"
        }
      ],
      "stateMutability": "view",
      "type": "function"
    },
    {
      "inputs": [
        {
          "internalType": "address",
          "name": "spender",
          "type": "address"
        },
        {
          "internalType": "uint256",
          "name": "subtractedValue",
          "type": "uint256"
        }
      ],
      "name": "decreaseAllowance",
      "outputs": [
        {
          "internalType": "bool",
          "name": "",
          "type": "bool"
        }
      ],
      "stateMutability": "nonpayable",
      "type": "function"
    },
    {
      "inputs": [],
      "name": "eip712Domain",
      "outputs": [
        {
          "internalType": "bytes1",
          "name": "fields",
          "type": "bytes1"
        },
        {
          "internalType": "string",
          "name": "name",
          "type": "string"
        },
        {
          "internalType": "string",
          "name": "version",
          "type": "string"
        },
        {
          "internalType": "uint256",
          "name": "chainId",
          "type": "uint256"
        },
        {
          "internalType": "address",
          "name": "verifyingContract",
          "type": "address"
        },
        {
          "internalType": "bytes32",
          "name": "salt",
          "type": "bytes32"
        },
        {
          "internalType": "uint256[]",
          "name": "extensions",
          "type": "uint256[]"
        }
      ],
      "stateMutability": "view",
      "type": "function"
    },
    {
      "inputs": [
        {
          "internalType": "address",
          "name": "spender",
          "type": "address"
        },
        {
          "internalType": "uint256",
          "name": "addedValue",
          "type": "uint256"
        }
      ],
      "name": "increaseAllowance",
      "outputs": [
        {
          "internalType": "bool",
          "name": "",
          "type": "bool"
        }
      ],
      "stateMutability": "nonpayable",
      "type": "function"
    },
    {
      "inputs": [
        {
          "internalType": "address",
          "name": "_to",
          "type": "address"
        },
        {
          "internalType": "uint256",
          "name": "_amount",
          "type": "uint256"
        }
      ],
      "name": "mintToken",
      "outputs": [],
      "stateMutability": "nonpayable",
      "type": "function"
    },
    {
      "inputs": [],
      "name": "name",
      "outputs": [
        {
          "internalType": "string",
          "name": "",
          "type": "string"
        }
      ],
      "stateMutability": "view",
      "type": "function"
    },
    {
      "inputs": [
        {
          "internalType": "address",
          "name": "owner",
          "type": "address"
        }
      ],
      "name": "nonces",
      "outputs": [
        {
          "internalType": "uint256",
          "name": "",
          "type": "uint256"
        }
      ],
      "stateMutability": "view",
      "type": "function"
    },
    {
      "inputs": [],
      "name": "owner",
      "outputs": [
        {
          "internalType": "address",
          "name": "",
          "type": "address"
        }
      ],
      "stateMutability": "view",
      "type": "function"
    },
    {
      "inputs": [
        {
          "internalType": "address",
          "name": "owner",
          "type": "address"
        },
        {
          "internalType": "address",
          "name": "spender",
          "type": "address"
        },
        {
          "internalType": "uint256",
          "name": "value",
          "type": "uint256"
        },
        {
          "internalType": "uint256",
          "name": "deadline",
          "type": "uint256"
        },
        {
          "internalType": "uint8",
          "name": "v",
          "type": "uint8"
        },
        {
          "internalType": "bytes32",
          "name": "r",
          "type": "bytes32"
        },
        {
          "internalType": "bytes32",
          "name": "s",
          "type": "bytes32"
        }
      ],
      "name": "permit",
      "outputs": [],
      "stateMutability": "nonpayable",
      "type": "function"
    },
    {
      "inputs": [
        {
          "internalType": "address",
          "name": "owner",
          "type": "address"
        },
        {
          "internalType": "address",
          "name": "spender",
          "type": "address"
        },
        {
          "internalType": "uint256",
          "name": "value",
          "type": "uint256"
        },
        {
          "internalType": "uint256",
          "name": "deadline",
          "type": "uint256"
        },
        {
          "internalType": "uint8",
          "name": "v",
          "type": "uint8"
        },
        {
          "internalType": "bytes32",
          "name": "r",
          "type": "bytes32"
        },
        {
          "internalType": "bytes32",
          "name": "s",
          "type": "bytes32"
        }
      ],
      "name": "permitAction",
      "outputs": [],
      "stateMutability": "nonpayable",
      "type": "function"
    },
    {
      "inputs": [],
      "name": "renounceOwnership",
      "outputs": [],
      "stateMutability": "nonpayable",
      "type": "function"
    },
    {
      "inputs": [],
      "name": "symbol",
      "outputs": [
        {
          "internalType": "string",
          "name": "",
          "type": "string"
        }
      ],
      "stateMutability": "view",
      "type": "function"
    },
    {
      "inputs": [],
      "name": "totalSupply",
      "outputs": [
        {
          "internalType": "uint256",
          "name": "",
          "type": "uint256"
        }
      ],
      "stateMutability": "view",
      "type": "function"
    },
    {
      "inputs": [
        {
          "internalType": "address",
          "name": "to",
          "type": "address"
        },
        {
          "internalType": "uint256",
          "name": "amount",
          "type": "uint256"
        }
      ],
      "name": "transfer",
      "outputs": [
        {
          "internalType": "bool",
          "name": "",
          "type": "bool"
        }
      ],
      "stateMutability": "nonpayable",
      "type": "function"
    },
    {
      "inputs": [
        {
          "internalType": "address",
          "name": "from",
          "type": "address"
        },
        {
          "internalType": "address",
          "name": "to",
          "type": "address"
        },
        {
          "internalType": "uint256",
          "name": "amount",
          "type": "uint256"
        }
      ],
      "name": "transferFrom",
      "outputs": [
        {
          "internalType": "bool",
          "name": "",
          "type": "bool"
        }
      ],
      "stateMutability": "nonpayable",
      "type": "function"
    },
    {
      "inputs": [
        {
          "internalType": "address",
          "name": "newOwner",
          "type": "address"
        }
      ],
      "name": "transferOwnership",
      "outputs": [],
      "stateMutability": "nonpayable",
      "type": "function"
    }
  ],
  "bytecode": "0x6101606040523480156200001257600080fd5b5060405162004166380380620041668339818101604052810190620000389190620009d9565b81806040518060400160405280600181526020017f3100000000000000000000000000000000000000000000000000000000000000815250848462000092620000866200022c60201b60201c565b6200023460201b60201c565b8160049081620000a3919062000cca565b508060059081620000b5919062000cca565b505050620000d3600683620002f860201b62000bcf1790919060201c565b6101208181525050620000f6600782620002f860201b62000bcf1790919060201c565b6101408181525050818051906020012060e08181525050808051906020012061010081815250504660a08181525050620001356200035560201b60201c565b608081815250503073ffffffffffffffffffffffffffffffffffffffff1660c08173ffffffffffffffffffffffffffffffffffffffff16815250505050506200018f67b35503704565046360c01b620003b260201b60201c565b620001ab670d32211a3d2b32af60c01b620003b260201b60201c565b620001c767379f684fc124368a60c01b620003b260201b60201c565b620001d93384620003b560201b60201c565b620001f5670778c73c77a762df60c01b620003b260201b60201c565b6200021167a0ca4a034bb4261260c01b620003b260201b60201c565b62000222846200046760201b60201c565b5050505062001166565b600033905090565b60008060009054906101000a900473ffffffffffffffffffffffffffffffffffffffff169050816000806101000a81548173ffffffffffffffffffffffffffffffffffffffff021916908373ffffffffffffffffffffffffffffffffffffffff1602179055508173ffffffffffffffffffffffffffffffffffffffff168173ffffffffffffffffffffffffffffffffffffffff167f8be0079c531659141344cd1fd0a4f28419497f9722a3daafe3b4186f6b6457e060405160405180910390a35050565b60006020835110156200031e576200031683620004fd60201b60201c565b90506200034f565b8262000335836200056a60201b62000c131760201c565b600001908162000346919062000cca565b5060ff60001b90505b92915050565b60007f8b73c3c69bb8fe3d512ecc4cf759cc79239f7b179b0ffacaa9a75d522b39400f60e0516101005146306040516020016200039795949392919062000dee565b60405160208183030381529060405280519060200120905090565b50565b620003d167516c1b10cacb2a3660c01b620003b260201b60201c565b620003e16200057460201b60201c565b620003fd674185395962ad1bcd60c01b620003b260201b60201c565b6200041967d974c40a6699493060c01b620003b260201b60201c565b620004356701a889ac59af9ffb60c01b620003b260201b60201c565b6200045167963101e63c6fc33e60c01b620003b260201b60201c565b6200046382826200060560201b60201c565b5050565b620004776200057460201b60201c565b600073ffffffffffffffffffffffffffffffffffffffff168173ffffffffffffffffffffffffffffffffffffffff1603620004e9576040517f08c379a0000000000000000000000000000000000000000000000000000000008152600401620004e09062000ed2565b60405180910390fd5b620004fa816200023460201b60201c565b50565b600080829050601f815111156200054d57826040517f305a27a900000000000000000000000000000000000000000000000000000000815260040162000544919062000f35565b60405180910390fd5b8051816200055b9062000f8b565b60001c1760001b915050919050565b6000819050919050565b620005846200022c60201b60201c565b73ffffffffffffffffffffffffffffffffffffffff16620005aa6200077360201b60201c565b73ffffffffffffffffffffffffffffffffffffffff161462000603576040517f08c379a0000000000000000000000000000000000000000000000000000000008152600401620005fa906200104b565b60405180910390fd5b565b600073ffffffffffffffffffffffffffffffffffffffff168273ffffffffffffffffffffffffffffffffffffffff160362000677576040517f08c379a00000000000000000000000000000000000000000000000000000000081526004016200066e90620010bd565b60405180910390fd5b6200068b600083836200079c60201b60201c565b80600360008282546200069f91906200110e565b9250508190555080600160008473ffffffffffffffffffffffffffffffffffffffff1673ffffffffffffffffffffffffffffffffffffffff168152602001908152602001600020600082825401925050819055508173ffffffffffffffffffffffffffffffffffffffff16600073ffffffffffffffffffffffffffffffffffffffff167fddf252ad1be2c89b69c2b068fc378daa952ba7f163c4a11628f55a4df523b3ef8360405162000753919062001149565b60405180910390a36200076f60008383620007a160201b60201c565b5050565b60008060009054906101000a900473ffffffffffffffffffffffffffffffffffffffff16905090565b505050565b505050565b6000604051905090565b600080fd5b600080fd5b600073ffffffffffffffffffffffffffffffffffffffff82169050919050565b6000620007e782620007ba565b9050919050565b620007f981620007da565b81146200080557600080fd5b50565b6000815190506200081981620007ee565b92915050565b6000819050919050565b62000834816200081f565b81146200084057600080fd5b50565b600081519050620008548162000829565b92915050565b600080fd5b600080fd5b6000601f19601f8301169050919050565b7f4e487b7100000000000000000000000000000000000000000000000000000000600052604160045260246000fd5b620008af8262000864565b810181811067ffffffffffffffff82111715620008d157620008d062000875565b5b80604052505050565b6000620008e6620007a6565b9050620008f48282620008a4565b919050565b600067ffffffffffffffff82111562000917576200091662000875565b5b620009228262000864565b9050602081019050919050565b60005b838110156200094f57808201518184015260208101905062000932565b60008484015250505050565b6000620009726200096c84620008f9565b620008da565b9050828152602081018484840111156200099157620009906200085f565b5b6200099e8482856200092f565b509392505050565b600082601f830112620009be57620009bd6200085a565b5b8151620009d08482602086016200095b565b91505092915050565b60008060008060808587031215620009f657620009f5620007b0565b5b600062000a068782880162000808565b945050602062000a198782880162000843565b935050604085015167ffffffffffffffff81111562000a3d5762000a3c620007b5565b5b62000a4b87828801620009a6565b925050606085015167ffffffffffffffff81111562000a6f5762000a6e620007b5565b5b62000a7d87828801620009a6565b91505092959194509250565b600081519050919050565b7f4e487b7100000000000000000000000000000000000000000000000000000000600052602260045260246000fd5b6000600282049050600182168062000adc57607f821691505b60208210810362000af25762000af162000a94565b5b50919050565b60008190508160005260206000209050919050565b60006020601f8301049050919050565b600082821b905092915050565b60006008830262000b5c7fffffffffffffffffffffffffffffffffffffffffffffffffffffffffffffffff8262000b1d565b62000b68868362000b1d565b95508019841693508086168417925050509392505050565b6000819050919050565b600062000bab62000ba562000b9f846200081f565b62000b80565b6200081f565b9050919050565b6000819050919050565b62000bc78362000b8a565b62000bdf62000bd68262000bb2565b84845462000b2a565b825550505050565b600090565b62000bf662000be7565b62000c0381848462000bbc565b505050565b5b8181101562000c2b5762000c1f60008262000bec565b60018101905062000c09565b5050565b601f82111562000c7a5762000c448162000af8565b62000c4f8462000b0d565b8101602085101562000c5f578190505b62000c7762000c6e8562000b0d565b83018262000c08565b50505b505050565b600082821c905092915050565b600062000c9f6000198460080262000c7f565b1980831691505092915050565b600062000cba838362000c8c565b9150826002028217905092915050565b62000cd58262000a89565b67ffffffffffffffff81111562000cf15762000cf062000875565b5b62000cfd825462000ac3565b62000d0a82828562000c2f565b600060209050601f83116001811462000d42576000841562000d2d578287015190505b62000d39858262000cac565b86555062000da9565b601f19841662000d528662000af8565b60005b8281101562000d7c5784890151825560018201915060208501945060208101905062000d55565b8683101562000d9c578489015162000d98601f89168262000c8c565b8355505b6001600288020188555050505b505050505050565b6000819050919050565b62000dc68162000db1565b82525050565b62000dd7816200081f565b82525050565b62000de881620007da565b82525050565b600060a08201905062000e05600083018862000dbb565b62000e14602083018762000dbb565b62000e23604083018662000dbb565b62000e32606083018562000dcc565b62000e41608083018462000ddd565b9695505050505050565b600082825260208201905092915050565b7f4f776e61626c653a206e6577206f776e657220697320746865207a65726f206160008201527f6464726573730000000000000000000000000000000000000000000000000000602082015250565b600062000eba60268362000e4b565b915062000ec78262000e5c565b604082019050919050565b6000602082019050818103600083015262000eed8162000eab565b9050919050565b600062000f018262000a89565b62000f0d818562000e4b565b935062000f1f8185602086016200092f565b62000f2a8162000864565b840191505092915050565b6000602082019050818103600083015262000f51818462000ef4565b905092915050565b600081519050919050565b6000819050602082019050919050565b600062000f82825162000db1565b80915050919050565b600062000f988262000f59565b8262000fa48462000f64565b905062000fb18162000f74565b9250602082101562000ff45762000fef7fffffffffffffffffffffffffffffffffffffffffffffffffffffffffffffffff8360200360080262000b1d565b831692505b5050919050565b7f4f776e61626c653a2063616c6c6572206973206e6f7420746865206f776e6572600082015250565b60006200103360208362000e4b565b9150620010408262000ffb565b602082019050919050565b60006020820190508181036000830152620010668162001024565b9050919050565b7f45524332303a206d696e7420746f20746865207a65726f206164647265737300600082015250565b6000620010a5601f8362000e4b565b9150620010b2826200106d565b602082019050919050565b60006020820190508181036000830152620010d88162001096565b9050919050565b7f4e487b7100000000000000000000000000000000000000000000000000000000600052601160045260246000fd5b60006200111b826200081f565b915062001128836200081f565b9250828201905080821115620011435762001142620010df565b5b92915050565b600060208201905062001160600083018462000dcc565b92915050565b60805160a05160c05160e051610100516101205161014051612fa5620011c16000396000610729015260006106f50152600061182e0152600061180d015260006110fa01526000611150015260006111790152612fa56000f3fe608060405234801561001057600080fd5b50600436106101375760003560e01c806379c65068116100b8578063a457c2d71161007c578063a457c2d714610346578063a9059cbb14610376578063d1df306c146103a6578063d505accf146103c2578063dd62ed3e146103de578063f2fde38b1461040e57610137565b806379c650681461029a5780637ecebe00146102b657806384b0196e146102e65780638da5cb5b1461030a57806395d89b411461032857610137565b8063313ce567116100ff578063313ce567146101f45780633644e51514610212578063395093511461023057806370a0823114610260578063715018a61461029057610137565b806306518f451461013c57806306fdde0314610158578063095ea7b31461017657806318160ddd146101a657806323b872dd146101c4575b600080fd5b61015660048036038101906101519190611ce9565b61042a565b005b61016061047e565b60405161016d9190611e1b565b60405180910390f35b610190600480360381019061018b9190611e3d565b610510565b60405161019d9190611e98565b60405180910390f35b6101ae610533565b6040516101bb9190611ec2565b60405180910390f35b6101de60048036038101906101d99190611edd565b61053d565b6040516101eb9190611e98565b60405180910390f35b6101fc61056c565b6040516102099190611f3f565b60405180910390f35b61021a610575565b6040516102279190611f69565b60405180910390f35b61024a60048036038101906102459190611e3d565b610584565b6040516102579190611e98565b60405180910390f35b61027a60048036038101906102759190611f84565b6105bb565b6040516102879190611ec2565b60405180910390f35b610298610604565b005b6102b460048036038101906102af9190611e3d565b610618565b005b6102d060048036038101906102cb9190611f84565b610692565b6040516102dd9190611ec2565b60405180910390f35b6102ee6106e2565b60405161030197969594939291906120b9565b60405180910390f35b6103126107e4565b60405161031f919061213d565b60405180910390f35b61033061080d565b60405161033d9190611e1b565b60405180910390f35b610360600480360381019061035b9190611e3d565b61089f565b60405161036d9190611e98565b60405180910390f35b610390600480360381019061038b9190611e3d565b610916565b60405161039d9190611e98565b60405180910390f35b6103c060048036038101906103bb9190611e3d565b610939565b005b6103dc60048036038101906103d79190611ce9565b610983565b005b6103f860048036038101906103f39190612158565b610ac5565b6040516104059190611ec2565b60405180910390f35b61042860048036038101906104239190611f84565b610b4c565b005b61043e6748f7a3365738c2d260c01b610c1d565b610452671878835ca8f691d660c01b610c1d565b610466677cb6f0ff1df17fa260c01b610c1d565b61047587878787878787610983565b50505050505050565b60606004805461048d906121c7565b80601f01602080910402602001604051908101604052809291908181526020018280546104b9906121c7565b80156105065780601f106104db57610100808354040283529160200191610506565b820191906000526020600020905b8154815290600101906020018083116104e957829003601f168201915b5050505050905090565b60008061051b610c20565b9050610528818585610c28565b600191505092915050565b6000600354905090565b600080610548610c20565b9050610555858285610df1565b610560858585610e7d565b60019150509392505050565b60006012905090565b600061057f6110f6565b905090565b60008061058f610c20565b90506105b08185856105a18589610ac5565b6105ab9190612227565b610c28565b600191505092915050565b6000600160008373ffffffffffffffffffffffffffffffffffffffff1673ffffffffffffffffffffffffffffffffffffffff168152602001908152602001600020549050919050565b61060c6111ad565b610616600061122b565b565b61062c67516c1b10cacb2a3660c01b610c1d565b6106346111ad565b610648674185395962ad1bcd60c01b610c1d565b61065c67d974c40a6699493060c01b610c1d565b6106706701a889ac59af9ffb60c01b610c1d565b61068467963101e63c6fc33e60c01b610c1d565b61068e82826112ef565b5050565b60006106db600860008473ffffffffffffffffffffffffffffffffffffffff1673ffffffffffffffffffffffffffffffffffffffff168152602001908152602001600020611446565b9050919050565b60006060806000806000606061072260067f000000000000000000000000000000000000000000000000000000000000000061145490919063ffffffff16565b61075660077f000000000000000000000000000000000000000000000000000000000000000061145490919063ffffffff16565b46306000801b600067ffffffffffffffff8111156107775761077661225b565b5b6040519080825280602002602001820160405280156107a55781602001602082028036833780820191505090505b507f0f00000000000000000000000000000000000000000000000000000000000000959493929190965096509650965096509650965090919293949596565b60008060009054906101000a900473ffffffffffffffffffffffffffffffffffffffff16905090565b60606005805461081c906121c7565b80601f0160208091040260200160405190810160405280929190818152602001828054610848906121c7565b80156108955780601f1061086a57610100808354040283529160200191610895565b820191906000526020600020905b81548152906001019060200180831161087857829003601f168201915b5050505050905090565b6000806108aa610c20565b905060006108b88286610ac5565b9050838110156108fd576040517f08c379a00000000000000000000000000000000000000000000000000000000081526004016108f4906122fc565b60405180910390fd5b61090a8286868403610c28565b60019250505092915050565b600080610921610c20565b905061092e818585610e7d565b600191505092915050565b61094d679e6b506dbf9ce68e60c01b610c1d565b61096167dd7cce1dd2f26f6660c01b610c1d565b61097567e9e00fcc20ce8fc660c01b610c1d565b61097f8282611504565b5050565b834211156109c6576040517f08c379a00000000000000000000000000000000000000000000000000000000081526004016109bd90612368565b60405180910390fd5b60007f6e71edae12b1b97f4d1f60370fef10105fa2faae0126114a169c64845d6126c98888886109f58c6116d3565b89604051602001610a0b96959493929190612388565b6040516020818303038152906040528051906020012090506000610a2e82611731565b90506000610a3e8287878761174b565b90508973ffffffffffffffffffffffffffffffffffffffff168173ffffffffffffffffffffffffffffffffffffffff1614610aae576040517f08c379a0000000000000000000000000000000000000000000000000000000008152600401610aa590612435565b60405180910390fd5b610ab98a8a8a610c28565b50505050505050505050565b6000600260008473ffffffffffffffffffffffffffffffffffffffff1673ffffffffffffffffffffffffffffffffffffffff16815260200190815260200160002060008373ffffffffffffffffffffffffffffffffffffffff1673ffffffffffffffffffffffffffffffffffffffff16815260200190815260200160002054905092915050565b610b546111ad565b600073ffffffffffffffffffffffffffffffffffffffff168173ffffffffffffffffffffffffffffffffffffffff1603610bc3576040517f08c379a0000000000000000000000000000000000000000000000000000000008152600401610bba906124c7565b60405180910390fd5b610bcc8161122b565b50565b6000602083511015610beb57610be483611776565b9050610c0d565b82610bf583610c13565b6000019081610c049190612693565b5060ff60001b90505b92915050565b6000819050919050565b50565b600033905090565b600073ffffffffffffffffffffffffffffffffffffffff168373ffffffffffffffffffffffffffffffffffffffff1603610c97576040517f08c379a0000000000000000000000000000000000000000000000000000000008152600401610c8e906127d7565b60405180910390fd5b600073ffffffffffffffffffffffffffffffffffffffff168273ffffffffffffffffffffffffffffffffffffffff1603610d06576040517f08c379a0000000000000000000000000000000000000000000000000000000008152600401610cfd90612869565b60405180910390fd5b80600260008573ffffffffffffffffffffffffffffffffffffffff1673ffffffffffffffffffffffffffffffffffffffff16815260200190815260200160002060008473ffffffffffffffffffffffffffffffffffffffff1673ffffffffffffffffffffffffffffffffffffffff168152602001908152602001600020819055508173ffffffffffffffffffffffffffffffffffffffff168373ffffffffffffffffffffffffffffffffffffffff167f8c5be1e5ebec7d5bd14f71427d1e84f3dd0314c0f7b2291e5b200ac8c7c3b92583604051610de49190611ec2565b60405180910390a3505050565b6000610dfd8484610ac5565b90507fffffffffffffffffffffffffffffffffffffffffffffffffffffffffffffffff8114610e775781811015610e69576040517f08c379a0000000000000000000000000000000000000000000000000000000008152600401610e60906128d5565b60405180910390fd5b610e768484848403610c28565b5b50505050565b600073ffffffffffffffffffffffffffffffffffffffff168373ffffffffffffffffffffffffffffffffffffffff1603610eec576040517f08c379a0000000000000000000000000000000000000000000000000000000008152600401610ee390612967565b60405180910390fd5b600073ffffffffffffffffffffffffffffffffffffffff168273ffffffffffffffffffffffffffffffffffffffff1603610f5b576040517f08c379a0000000000000000000000000000000000000000000000000000000008152600401610f52906129f9565b60405180910390fd5b610f668383836117de565b6000600160008573ffffffffffffffffffffffffffffffffffffffff1673ffffffffffffffffffffffffffffffffffffffff16815260200190815260200160002054905081811015610fed576040517f08c379a0000000000000000000000000000000000000000000000000000000008152600401610fe490612a8b565b60405180910390fd5b818103600160008673ffffffffffffffffffffffffffffffffffffffff1673ffffffffffffffffffffffffffffffffffffffff1681526020019081526020016000208190555081600160008573ffffffffffffffffffffffffffffffffffffffff1673ffffffffffffffffffffffffffffffffffffffff168152602001908152602001600020600082825401925050819055508273ffffffffffffffffffffffffffffffffffffffff168473ffffffffffffffffffffffffffffffffffffffff167fddf252ad1be2c89b69c2b068fc378daa952ba7f163c4a11628f55a4df523b3ef846040516110dd9190611ec2565b60405180910390a36110f08484846117e3565b50505050565b60007f000000000000000000000000000000000000000000000000000000000000000073ffffffffffffffffffffffffffffffffffffffff163073ffffffffffffffffffffffffffffffffffffffff1614801561117257507f000000000000000000000000000000000000000000000000000000000000000046145b1561119f577f000000000000000000000000000000000000000000000000000000000000000090506111aa565b6111a76117e8565b90505b90565b6111b5610c20565b73ffffffffffffffffffffffffffffffffffffffff166111d36107e4565b73ffffffffffffffffffffffffffffffffffffffff1614611229576040517f08c379a000000000000000000000000000000000000000000000000000000000815260040161122090612af7565b60405180910390fd5b565b60008060009054906101000a900473ffffffffffffffffffffffffffffffffffffffff169050816000806101000a81548173ffffffffffffffffffffffffffffffffffffffff021916908373ffffffffffffffffffffffffffffffffffffffff1602179055508173ffffffffffffffffffffffffffffffffffffffff168173ffffffffffffffffffffffffffffffffffffffff167f8be0079c531659141344cd1fd0a4f28419497f9722a3daafe3b4186f6b6457e060405160405180910390a35050565b600073ffffffffffffffffffffffffffffffffffffffff168273ffffffffffffffffffffffffffffffffffffffff160361135e576040517f08c379a000000000000000000000000000000000000000000000000000000000815260040161135590612b63565b60405180910390fd5b61136a600083836117de565b806003600082825461137c9190612227565b9250508190555080600160008473ffffffffffffffffffffffffffffffffffffffff1673ffffffffffffffffffffffffffffffffffffffff168152602001908152602001600020600082825401925050819055508173ffffffffffffffffffffffffffffffffffffffff16600073ffffffffffffffffffffffffffffffffffffffff167fddf252ad1be2c89b69c2b068fc378daa952ba7f163c4a11628f55a4df523b3ef8360405161142e9190611ec2565b60405180910390a3611442600083836117e3565b5050565b600081600001549050919050565b606060ff60001b83146114715761146a8361187e565b90506114fe565b81805461147d906121c7565b80601f01602080910402602001604051908101604052809291908181526020018280546114a9906121c7565b80156114f65780601f106114cb576101008083540402835291602001916114f6565b820191906000526020600020905b8154815290600101906020018083116114d957829003601f168201915b505050505090505b92915050565b600073ffffffffffffffffffffffffffffffffffffffff168273ffffffffffffffffffffffffffffffffffffffff1603611573576040517f08c379a000000000000000000000000000000000000000000000000000000000815260040161156a90612bf5565b60405180910390fd5b61157f826000836117de565b6000600160008473ffffffffffffffffffffffffffffffffffffffff1673ffffffffffffffffffffffffffffffffffffffff16815260200190815260200160002054905081811015611606576040517f08c379a00000000000000000000000000000000000000000000000000000000081526004016115fd90612c87565b60405180910390fd5b818103600160008573ffffffffffffffffffffffffffffffffffffffff1673ffffffffffffffffffffffffffffffffffffffff1681526020019081526020016000208190555081600360008282540392505081905550600073ffffffffffffffffffffffffffffffffffffffff168373ffffffffffffffffffffffffffffffffffffffff167fddf252ad1be2c89b69c2b068fc378daa952ba7f163c4a11628f55a4df523b3ef846040516116ba9190611ec2565b60405180910390a36116ce836000846117e3565b505050565b600080600860008473ffffffffffffffffffffffffffffffffffffffff1673ffffffffffffffffffffffffffffffffffffffff168152602001908152602001600020905061172081611446565b915061172b816118f2565b50919050565b600061174461173e6110f6565b83611908565b9050919050565b600080600061175c87878787611949565b9150915061176981611a2b565b8192505050949350505050565b600080829050601f815111156117c357826040517f305a27a90000000000000000000000000000000000000000000000000000000081526004016117ba9190611e1b565b60405180910390fd5b8051816117cf90612cd7565b60001c1760001b915050919050565b505050565b505050565b60007f8b73c3c69bb8fe3d512ecc4cf759cc79239f7b179b0ffacaa9a75d522b39400f7f00000000000000000000000000000000000000000000000000000000000000007f00000000000000000000000000000000000000000000000000000000000000004630604051602001611863959493929190612d3e565b60405160208183030381529060405280519060200120905090565b6060600061188b83611b91565b90506000602067ffffffffffffffff8111156118aa576118a961225b565b5b6040519080825280601f01601f1916602001820160405280156118dc5781602001600182028036833780820191505090505b5090508181528360208201528092505050919050565b6001816000016000828254019250508190555050565b60006040517f190100000000000000000000000000000000000000000000000000000000000081528360028201528260228201526042812091505092915050565b6000807f7fffffffffffffffffffffffffffffff5d576e7357a4501ddfe92f46681b20a08360001c1115611984576000600391509150611a22565b6000600187878787604051600081526020016040526040516119a99493929190612d91565b6020604051602081039080840390855afa1580156119cb573d6000803e3d6000fd5b505050602060405103519050600073ffffffffffffffffffffffffffffffffffffffff168173ffffffffffffffffffffffffffffffffffffffff1603611a1957600060019250925050611a22565b80600092509250505b94509492505050565b60006004811115611a3f57611a3e612dd6565b5b816004811115611a5257611a51612dd6565b5b0315611b8e5760016004811115611a6c57611a6b612dd6565b5b816004811115611a7f57611a7e612dd6565b5b03611abf576040517f08c379a0000000000000000000000000000000000000000000000000000000008152600401611ab690612e51565b60405180910390fd5b60026004811115611ad357611ad2612dd6565b5b816004811115611ae657611ae5612dd6565b5b03611b26576040517f08c379a0000000000000000000000000000000000000000000000000000000008152600401611b1d90612ebd565b60405180910390fd5b60036004811115611b3a57611b39612dd6565b5b816004811115611b4d57611b4c612dd6565b5b03611b8d576040517f08c379a0000000000000000000000000000000000000000000000000000000008152600401611b8490612f4f565b60405180910390fd5b5b50565b60008060ff8360001c169050601f811115611bd8576040517fb3512b0c00000000000000000000000000000000000000000000000000000000815260040160405180910390fd5b80915050919050565b600080fd5b600073ffffffffffffffffffffffffffffffffffffffff82169050919050565b6000611c1182611be6565b9050919050565b611c2181611c06565b8114611c2c57600080fd5b50565b600081359050611c3e81611c18565b92915050565b6000819050919050565b611c5781611c44565b8114611c6257600080fd5b50565b600081359050611c7481611c4e565b92915050565b600060ff82169050919050565b611c9081611c7a565b8114611c9b57600080fd5b50565b600081359050611cad81611c87565b92915050565b6000819050919050565b611cc681611cb3565b8114611cd157600080fd5b50565b600081359050611ce381611cbd565b92915050565b600080600080600080600060e0888a031215611d0857611d07611be1565b5b6000611d168a828b01611c2f565b9750506020611d278a828b01611c2f565b9650506040611d388a828b01611c65565b9550506060611d498a828b01611c65565b9450506080611d5a8a828b01611c9e565b93505060a0611d6b8a828b01611cd4565b92505060c0611d7c8a828b01611cd4565b91505092959891949750929550565b600081519050919050565b600082825260208201905092915050565b60005b83811015611dc5578082015181840152602081019050611daa565b60008484015250505050565b6000601f19601f8301169050919050565b6000611ded82611d8b565b611df78185611d96565b9350611e07818560208601611da7565b611e1081611dd1565b840191505092915050565b60006020820190508181036000830152611e358184611de2565b905092915050565b60008060408385031215611e5457611e53611be1565b5b6000611e6285828601611c2f565b9250506020611e7385828601611c65565b9150509250929050565b60008115159050919050565b611e9281611e7d565b82525050565b6000602082019050611ead6000830184611e89565b92915050565b611ebc81611c44565b82525050565b6000602082019050611ed76000830184611eb3565b92915050565b600080600060608486031215611ef657611ef5611be1565b5b6000611f0486828701611c2f565b9350506020611f1586828701611c2f565b9250506040611f2686828701611c65565b9150509250925092565b611f3981611c7a565b82525050565b6000602082019050611f546000830184611f30565b92915050565b611f6381611cb3565b82525050565b6000602082019050611f7e6000830184611f5a565b92915050565b600060208284031215611f9a57611f99611be1565b5b6000611fa884828501611c2f565b91505092915050565b60007fff0000000000000000000000000000000000000000000000000000000000000082169050919050565b611fe681611fb1565b82525050565b611ff581611c06565b82525050565b600081519050919050565b600082825260208201905092915050565b6000819050602082019050919050565b61203081611c44565b82525050565b60006120428383612027565b60208301905092915050565b6000602082019050919050565b600061206682611ffb565b6120708185612006565b935061207b83612017565b8060005b838110156120ac5781516120938882612036565b975061209e8361204e565b92505060018101905061207f565b5085935050505092915050565b600060e0820190506120ce600083018a611fdd565b81810360208301526120e08189611de2565b905081810360408301526120f48188611de2565b90506121036060830187611eb3565b6121106080830186611fec565b61211d60a0830185611f5a565b81810360c083015261212f818461205b565b905098975050505050505050565b60006020820190506121526000830184611fec565b92915050565b6000806040838503121561216f5761216e611be1565b5b600061217d85828601611c2f565b925050602061218e85828601611c2f565b9150509250929050565b7f4e487b7100000000000000000000000000000000000000000000000000000000600052602260045260246000fd5b600060028204905060018216806121df57607f821691505b6020821081036121f2576121f1612198565b5b50919050565b7f4e487b7100000000000000000000000000000000000000000000000000000000600052601160045260246000fd5b600061223282611c44565b915061223d83611c44565b9250828201905080821115612255576122546121f8565b5b92915050565b7f4e487b7100000000000000000000000000000000000000000000000000000000600052604160045260246000fd5b7f45524332303a2064656372656173656420616c6c6f77616e63652062656c6f7760008201527f207a65726f000000000000000000000000000000000000000000000000000000602082015250565b60006122e6602583611d96565b91506122f18261228a565b604082019050919050565b60006020820190508181036000830152612315816122d9565b9050919050565b7f45524332305065726d69743a206578706972656420646561646c696e65000000600082015250565b6000612352601d83611d96565b915061235d8261231c565b602082019050919050565b6000602082019050818103600083015261238181612345565b9050919050565b600060c08201905061239d6000830189611f5a565b6123aa6020830188611fec565b6123b76040830187611fec565b6123c46060830186611eb3565b6123d16080830185611eb3565b6123de60a0830184611eb3565b979650505050505050565b7f45524332305065726d69743a20696e76616c6964207369676e61747572650000600082015250565b600061241f601e83611d96565b915061242a826123e9565b602082019050919050565b6000602082019050818103600083015261244e81612412565b9050919050565b7f4f776e61626c653a206e6577206f776e657220697320746865207a65726f206160008201527f6464726573730000000000000000000000000000000000000000000000000000602082015250565b60006124b1602683611d96565b91506124bc82612455565b604082019050919050565b600060208201905081810360008301526124e0816124a4565b9050919050565b60008190508160005260206000209050919050565b60006020601f8301049050919050565b600082821b905092915050565b6000600883026125497fffffffffffffffffffffffffffffffffffffffffffffffffffffffffffffffff8261250c565b612553868361250c565b95508019841693508086168417925050509392505050565b6000819050919050565b600061259061258b61258684611c44565b61256b565b611c44565b9050919050565b6000819050919050565b6125aa83612575565b6125be6125b682612597565b848454612519565b825550505050565b600090565b6125d36125c6565b6125de8184846125a1565b505050565b5b81811015612602576125f76000826125cb565b6001810190506125e4565b5050565b601f82111561264757612618816124e7565b612621846124fc565b81016020851015612630578190505b61264461263c856124fc565b8301826125e3565b50505b505050565b600082821c905092915050565b600061266a6000198460080261264c565b1980831691505092915050565b60006126838383612659565b9150826002028217905092915050565b61269c82611d8b565b67ffffffffffffffff8111156126b5576126b461225b565b5b6126bf82546121c7565b6126ca828285612606565b600060209050601f8311600181146126fd57600084156126eb578287015190505b6126f58582612677565b86555061275d565b601f19841661270b866124e7565b60005b828110156127335784890151825560018201915060208501945060208101905061270e565b86831015612750578489015161274c601f891682612659565b8355505b6001600288020188555050505b505050505050565b7f45524332303a20617070726f76652066726f6d20746865207a65726f2061646460008201527f7265737300000000000000000000000000000000000000000000000000000000602082015250565b60006127c1602483611d96565b91506127cc82612765565b604082019050919050565b600060208201905081810360008301526127f0816127b4565b9050919050565b7f45524332303a20617070726f766520746f20746865207a65726f20616464726560008201527f7373000000000000000000000000000000000000000000000000000000000000602082015250565b6000612853602283611d96565b915061285e826127f7565b604082019050919050565b6000602082019050818103600083015261288281612846565b9050919050565b7f45524332303a20696e73756666696369656e7420616c6c6f77616e6365000000600082015250565b60006128bf601d83611d96565b91506128ca82612889565b602082019050919050565b600060208201905081810360008301526128ee816128b2565b9050919050565b7f45524332303a207472616e736665722066726f6d20746865207a65726f20616460008201527f6472657373000000000000000000000000000000000000000000000000000000602082015250565b6000612951602583611d96565b915061295c826128f5565b604082019050919050565b6000602082019050818103600083015261298081612944565b9050919050565b7f45524332303a207472616e7366657220746f20746865207a65726f206164647260008201527f6573730000000000000000000000000000000000000000000000000000000000602082015250565b60006129e3602383611d96565b91506129ee82612987565b604082019050919050565b60006020820190508181036000830152612a12816129d6565b9050919050565b7f45524332303a207472616e7366657220616d6f756e742065786365656473206260008201527f616c616e63650000000000000000000000000000000000000000000000000000602082015250565b6000612a75602683611d96565b9150612a8082612a19565b604082019050919050565b60006020820190508181036000830152612aa481612a68565b9050919050565b7f4f776e61626c653a2063616c6c6572206973206e6f7420746865206f776e6572600082015250565b6000612ae1602083611d96565b9150612aec82612aab565b602082019050919050565b60006020820190508181036000830152612b1081612ad4565b9050919050565b7f45524332303a206d696e7420746f20746865207a65726f206164647265737300600082015250565b6000612b4d601f83611d96565b9150612b5882612b17565b602082019050919050565b60006020820190508181036000830152612b7c81612b40565b9050919050565b7f45524332303a206275726e2066726f6d20746865207a65726f2061646472657360008201527f7300000000000000000000000000000000000000000000000000000000000000602082015250565b6000612bdf602183611d96565b9150612bea82612b83565b604082019050919050565b60006020820190508181036000830152612c0e81612bd2565b9050919050565b7f45524332303a206275726e20616d6f756e7420657863656564732062616c616e60008201527f6365000000000000000000000000000000000000000000000000000000000000602082015250565b6000612c71602283611d96565b9150612c7c82612c15565b604082019050919050565b60006020820190508181036000830152612ca081612c64565b9050919050565b600081519050919050565b6000819050602082019050919050565b6000612cce8251611cb3565b80915050919050565b6000612ce282612ca7565b82612cec84612cb2565b9050612cf781612cc2565b92506020821015612d3757612d327fffffffffffffffffffffffffffffffffffffffffffffffffffffffffffffffff8360200360080261250c565b831692505b5050919050565b600060a082019050612d536000830188611f5a565b612d606020830187611f5a565b612d6d6040830186611f5a565b612d7a6060830185611eb3565b612d876080830184611fec565b9695505050505050565b6000608082019050612da66000830187611f5a565b612db36020830186611f30565b612dc06040830185611f5a565b612dcd6060830184611f5a565b95945050505050565b7f4e487b7100000000000000000000000000000000000000000000000000000000600052602160045260246000fd5b7f45434453413a20696e76616c6964207369676e61747572650000000000000000600082015250565b6000612e3b601883611d96565b9150612e4682612e05565b602082019050919050565b60006020820190508181036000830152612e6a81612e2e565b9050919050565b7f45434453413a20696e76616c6964207369676e6174757265206c656e67746800600082015250565b6000612ea7601f83611d96565b9150612eb282612e71565b602082019050919050565b60006020820190508181036000830152612ed681612e9a565b9050919050565b7f45434453413a20696e76616c6964207369676e6174757265202773272076616c60008201527f7565000000000000000000000000000000000000000000000000000000000000602082015250565b6000612f39602283611d96565b9150612f4482612edd565b604082019050919050565b60006020820190508181036000830152612f6881612f2c565b905091905056fea26469706673582212201eb810a3001e84d2456f34a86212a22fafea446300dd6695a9ed8838a361f5a964736f6c63430008120033",
  "linkReferences": {},
  "deployedLinkReferences": {}
}