{
  "_format": "hh-sol-artifact-1",
  "contractName": "WERC20",
  "sourceName": "contracts/WERC20.sol",
  "abi": [
    {
      "inputs": [
        {
          "internalType": "address",
          "name": "_bridgeAddress",
          "type": "address"
        },
        {
          "internalType": "uint256",
          "name": "_initialAmount",
          "type": "uint256"
        },
        {
          "internalType": "string",
          "name": "_tokenName",
          "type": "string"
        },
        {
          "internalType": "string",
          "name": "_tokenSymbol",
          "type": "string"
        }
      ],
      "stateMutability": "nonpayable",
      "type": "constructor"
    },
    {
      "inputs": [],
      "name": "InvalidShortString",
      "type": "error"
    },
    {
      "inputs": [
        {
          "internalType": "string",
          "name": "str",
          "type": "string"
        }
      ],
      "name": "StringTooLong",
      "type": "error"
    },
    {
      "anonymous": false,
      "inputs": [
        {
          "indexed": true,
          "internalType": "address",
          "name": "owner",
          "type": "address"
        },
        {
          "indexed": true,
          "internalType": "address",
          "name": "spender",
          "type": "address"
        },
        {
          "indexed": false,
          "internalType": "uint256",
          "name": "value",
          "type": "uint256"
        }
      ],
      "name": "Approval",
      "type": "event"
    },
    {
      "anonymous": false,
      "inputs": [],
      "name": "EIP712DomainChanged",
      "type": "event"
    },
    {
      "anonymous": false,
      "inputs": [
        {
          "indexed": true,
          "internalType": "address",
          "name": "previousOwner",
          "type": "address"
        },
        {
          "indexed": true,
          "internalType": "address",
          "name": "newOwner",
          "type": "address"
        }
      ],
      "name": "OwnershipTransferred",
      "type": "event"
    },
    {
      "anonymous": false,
      "inputs": [
        {
          "indexed": true,
          "internalType": "address",
          "name": "from",
          "type": "address"
        },
        {
          "indexed": true,
          "internalType": "address",
          "name": "to",
          "type": "address"
        },
        {
          "indexed": false,
          "internalType": "uint256",
          "name": "value",
          "type": "uint256"
        }
      ],
      "name": "Transfer",
      "type": "event"
    },
    {
      "inputs": [],
      "name": "DOMAIN_SEPARATOR",
      "outputs": [
        {
          "internalType": "bytes32",
          "name": "",
          "type": "bytes32"
        }
      ],
      "stateMutability": "view",
      "type": "function"
    },
    {
      "inputs": [
        {
          "internalType": "address",
          "name": "owner",
          "type": "address"
        },
        {
          "internalType": "address",
          "name": "spender",
          "type": "address"
        }
      ],
      "name": "allowance",
      "outputs": [
        {
          "internalType": "uint256",
          "name": "",
          "type": "uint256"
        }
      ],
      "stateMutability": "view",
      "type": "function"
    },
    {
      "inputs": [
        {
          "internalType": "address",
          "name": "spender",
          "type": "address"
        },
        {
          "internalType": "uint256",
          "name": "amount",
          "type": "uint256"
        }
      ],
      "name": "approve",
      "outputs": [
        {
          "internalType": "bool",
          "name": "",
          "type": "bool"
        }
      ],
      "stateMutability": "nonpayable",
      "type": "function"
    },
    {
      "inputs": [
        {
          "internalType": "address",
          "name": "account",
          "type": "address"
        }
      ],
      "name": "balanceOf",
      "outputs": [
        {
          "internalType": "uint256",
          "name": "",
          "type": "uint256"
        }
      ],
      "stateMutability": "view",
      "type": "function"
    },
    {
      "inputs": [
        {
          "internalType": "address",
          "name": "_from",
          "type": "address"
        },
        {
          "internalType": "uint256",
          "name": "_amount",
          "type": "uint256"
        }
      ],
      "name": "burnToken",
      "outputs": [],
      "stateMutability": "nonpayable",
      "type": "function"
    },
    {
      "inputs": [],
      "name": "decimals",
      "outputs": [
        {
          "internalType": "uint8",
          "name": "",
          "type": "uint8"
        }
      ],
      "stateMutability": "view",
      "type": "function"
    },
    {
      "inputs": [
        {
          "internalType": "address",
          "name": "spender",
          "type": "address"
        },
        {
          "internalType": "uint256",
          "name": "subtractedValue",
          "type": "uint256"
        }
      ],
      "name": "decreaseAllowance",
      "outputs": [
        {
          "internalType": "bool",
          "name": "",
          "type": "bool"
        }
      ],
      "stateMutability": "nonpayable",
      "type": "function"
    },
    {
      "inputs": [],
      "name": "eip712Domain",
      "outputs": [
        {
          "internalType": "bytes1",
          "name": "fields",
          "type": "bytes1"
        },
        {
          "internalType": "string",
          "name": "name",
          "type": "string"
        },
        {
          "internalType": "string",
          "name": "version",
          "type": "string"
        },
        {
          "internalType": "uint256",
          "name": "chainId",
          "type": "uint256"
        },
        {
          "internalType": "address",
          "name": "verifyingContract",
          "type": "address"
        },
        {
          "internalType": "bytes32",
          "name": "salt",
          "type": "bytes32"
        },
        {
          "internalType": "uint256[]",
          "name": "extensions",
          "type": "uint256[]"
        }
      ],
      "stateMutability": "view",
      "type": "function"
    },
    {
      "inputs": [
        {
          "internalType": "address",
          "name": "spender",
          "type": "address"
        },
        {
          "internalType": "uint256",
          "name": "addedValue",
          "type": "uint256"
        }
      ],
      "name": "increaseAllowance",
      "outputs": [
        {
          "internalType": "bool",
          "name": "",
          "type": "bool"
        }
      ],
      "stateMutability": "nonpayable",
      "type": "function"
    },
    {
      "inputs": [
        {
          "internalType": "address",
          "name": "_to",
          "type": "address"
        },
        {
          "internalType": "uint256",
          "name": "_amount",
          "type": "uint256"
        }
      ],
      "name": "mintToken",
      "outputs": [],
      "stateMutability": "nonpayable",
      "type": "function"
    },
    {
      "inputs": [],
      "name": "name",
      "outputs": [
        {
          "internalType": "string",
          "name": "",
          "type": "string"
        }
      ],
      "stateMutability": "view",
      "type": "function"
    },
    {
      "inputs": [
        {
          "internalType": "address",
          "name": "owner",
          "type": "address"
        }
      ],
      "name": "nonces",
      "outputs": [
        {
          "internalType": "uint256",
          "name": "",
          "type": "uint256"
        }
      ],
      "stateMutability": "view",
      "type": "function"
    },
    {
      "inputs": [],
      "name": "owner",
      "outputs": [
        {
          "internalType": "address",
          "name": "",
          "type": "address"
        }
      ],
      "stateMutability": "view",
      "type": "function"
    },
    {
      "inputs": [
        {
          "internalType": "address",
          "name": "owner",
          "type": "address"
        },
        {
          "internalType": "address",
          "name": "spender",
          "type": "address"
        },
        {
          "internalType": "uint256",
          "name": "value",
          "type": "uint256"
        },
        {
          "internalType": "uint256",
          "name": "deadline",
          "type": "uint256"
        },
        {
          "internalType": "uint8",
          "name": "v",
          "type": "uint8"
        },
        {
          "internalType": "bytes32",
          "name": "r",
          "type": "bytes32"
        },
        {
          "internalType": "bytes32",
          "name": "s",
          "type": "bytes32"
        }
      ],
      "name": "permit",
      "outputs": [],
      "stateMutability": "nonpayable",
      "type": "function"
    },
    {
      "inputs": [],
      "name": "renounceOwnership",
      "outputs": [],
      "stateMutability": "nonpayable",
      "type": "function"
    },
    {
      "inputs": [],
      "name": "symbol",
      "outputs": [
        {
          "internalType": "string",
          "name": "",
          "type": "string"
        }
      ],
      "stateMutability": "view",
      "type": "function"
    },
    {
      "inputs": [],
      "name": "totalSupply",
      "outputs": [
        {
          "internalType": "uint256",
          "name": "",
          "type": "uint256"
        }
      ],
      "stateMutability": "view",
      "type": "function"
    },
    {
      "inputs": [
        {
          "internalType": "address",
          "name": "to",
          "type": "address"
        },
        {
          "internalType": "uint256",
          "name": "amount",
          "type": "uint256"
        }
      ],
      "name": "transfer",
      "outputs": [
        {
          "internalType": "bool",
          "name": "",
          "type": "bool"
        }
      ],
      "stateMutability": "nonpayable",
      "type": "function"
    },
    {
      "inputs": [
        {
          "internalType": "address",
          "name": "from",
          "type": "address"
        },
        {
          "internalType": "address",
          "name": "to",
          "type": "address"
        },
        {
          "internalType": "uint256",
          "name": "amount",
          "type": "uint256"
        }
      ],
      "name": "transferFrom",
      "outputs": [
        {
          "internalType": "bool",
          "name": "",
          "type": "bool"
        }
      ],
      "stateMutability": "nonpayable",
      "type": "function"
    },
    {
      "inputs": [
        {
          "internalType": "address",
          "name": "newOwner",
          "type": "address"
        }
      ],
      "name": "transferOwnership",
      "outputs": [],
      "stateMutability": "nonpayable",
      "type": "function"
    }
  ],
  "bytecode": "0x6101606040523480156200001257600080fd5b50604051620040eb380380620040eb8339818101604052810190620000389190620009d9565b81806040518060400160405280600181526020017f3100000000000000000000000000000000000000000000000000000000000000815250848462000092620000866200022c60201b60201c565b6200023460201b60201c565b8160049081620000a3919062000cca565b508060059081620000b5919062000cca565b505050620000d3600683620002f860201b62000b541790919060201c565b6101208181525050620000f6600782620002f860201b62000b541790919060201c565b6101408181525050818051906020012060e08181525050808051906020012061010081815250504660a08181525050620001356200035560201b60201c565b608081815250503073ffffffffffffffffffffffffffffffffffffffff1660c08173ffffffffffffffffffffffffffffffffffffffff16815250505050506200018f67d78bc320af1c7f8a60c01b620003b260201b60201c565b620001ab67975c98afa32b058260c01b620003b260201b60201c565b620001c7679ee39fb631395aad60c01b620003b260201b60201c565b620001d93384620003b560201b60201c565b620001f5676fdb0f21063732cf60c01b620003b260201b60201c565b6200021167247a4501f789097f60c01b620003b260201b60201c565b62000222846200046760201b60201c565b5050505062001166565b600033905090565b60008060009054906101000a900473ffffffffffffffffffffffffffffffffffffffff169050816000806101000a81548173ffffffffffffffffffffffffffffffffffffffff021916908373ffffffffffffffffffffffffffffffffffffffff1602179055508173ffffffffffffffffffffffffffffffffffffffff168173ffffffffffffffffffffffffffffffffffffffff167f8be0079c531659141344cd1fd0a4f28419497f9722a3daafe3b4186f6b6457e060405160405180910390a35050565b60006020835110156200031e576200031683620004fd60201b60201c565b90506200034f565b8262000335836200056a60201b62000b981760201c565b600001908162000346919062000cca565b5060ff60001b90505b92915050565b60007f8b73c3c69bb8fe3d512ecc4cf759cc79239f7b179b0ffacaa9a75d522b39400f60e0516101005146306040516020016200039795949392919062000dee565b60405160208183030381529060405280519060200120905090565b50565b620003d16717c694a5b27045c960c01b620003b260201b60201c565b620003e16200057460201b60201c565b620003fd67e86467241b88e2a660c01b620003b260201b60201c565b6200041967d078f5f16e809fbd60c01b620003b260201b60201c565b62000435672bdf5e708dee4c9560c01b620003b260201b60201c565b62000451674cdfcfdded238dc060c01b620003b260201b60201c565b6200046382826200060560201b60201c565b5050565b620004776200057460201b60201c565b600073ffffffffffffffffffffffffffffffffffffffff168173ffffffffffffffffffffffffffffffffffffffff1603620004e9576040517f08c379a0000000000000000000000000000000000000000000000000000000008152600401620004e09062000ed2565b60405180910390fd5b620004fa816200023460201b60201c565b50565b600080829050601f815111156200054d57826040517f305a27a900000000000000000000000000000000000000000000000000000000815260040162000544919062000f35565b60405180910390fd5b8051816200055b9062000f8b565b60001c1760001b915050919050565b6000819050919050565b620005846200022c60201b60201c565b73ffffffffffffffffffffffffffffffffffffffff16620005aa6200077360201b60201c565b73ffffffffffffffffffffffffffffffffffffffff161462000603576040517f08c379a0000000000000000000000000000000000000000000000000000000008152600401620005fa906200104b565b60405180910390fd5b565b600073ffffffffffffffffffffffffffffffffffffffff168273ffffffffffffffffffffffffffffffffffffffff160362000677576040517f08c379a00000000000000000000000000000000000000000000000000000000081526004016200066e90620010bd565b60405180910390fd5b6200068b600083836200079c60201b60201c565b80600360008282546200069f91906200110e565b9250508190555080600160008473ffffffffffffffffffffffffffffffffffffffff1673ffffffffffffffffffffffffffffffffffffffff168152602001908152602001600020600082825401925050819055508173ffffffffffffffffffffffffffffffffffffffff16600073ffffffffffffffffffffffffffffffffffffffff167fddf252ad1be2c89b69c2b068fc378daa952ba7f163c4a11628f55a4df523b3ef8360405162000753919062001149565b60405180910390a36200076f60008383620007a160201b60201c565b5050565b60008060009054906101000a900473ffffffffffffffffffffffffffffffffffffffff16905090565b505050565b505050565b6000604051905090565b600080fd5b600080fd5b600073ffffffffffffffffffffffffffffffffffffffff82169050919050565b6000620007e782620007ba565b9050919050565b620007f981620007da565b81146200080557600080fd5b50565b6000815190506200081981620007ee565b92915050565b6000819050919050565b62000834816200081f565b81146200084057600080fd5b50565b600081519050620008548162000829565b92915050565b600080fd5b600080fd5b6000601f19601f8301169050919050565b7f4e487b7100000000000000000000000000000000000000000000000000000000600052604160045260246000fd5b620008af8262000864565b810181811067ffffffffffffffff82111715620008d157620008d062000875565b5b80604052505050565b6000620008e6620007a6565b9050620008f48282620008a4565b919050565b600067ffffffffffffffff82111562000917576200091662000875565b5b620009228262000864565b9050602081019050919050565b60005b838110156200094f57808201518184015260208101905062000932565b60008484015250505050565b6000620009726200096c84620008f9565b620008da565b9050828152602081018484840111156200099157620009906200085f565b5b6200099e8482856200092f565b509392505050565b600082601f830112620009be57620009bd6200085a565b5b8151620009d08482602086016200095b565b91505092915050565b60008060008060808587031215620009f657620009f5620007b0565b5b600062000a068782880162000808565b945050602062000a198782880162000843565b935050604085015167ffffffffffffffff81111562000a3d5762000a3c620007b5565b5b62000a4b87828801620009a6565b925050606085015167ffffffffffffffff81111562000a6f5762000a6e620007b5565b5b62000a7d87828801620009a6565b91505092959194509250565b600081519050919050565b7f4e487b7100000000000000000000000000000000000000000000000000000000600052602260045260246000fd5b6000600282049050600182168062000adc57607f821691505b60208210810362000af25762000af162000a94565b5b50919050565b60008190508160005260206000209050919050565b60006020601f8301049050919050565b600082821b905092915050565b60006008830262000b5c7fffffffffffffffffffffffffffffffffffffffffffffffffffffffffffffffff8262000b1d565b62000b68868362000b1d565b95508019841693508086168417925050509392505050565b6000819050919050565b600062000bab62000ba562000b9f846200081f565b62000b80565b6200081f565b9050919050565b6000819050919050565b62000bc78362000b8a565b62000bdf62000bd68262000bb2565b84845462000b2a565b825550505050565b600090565b62000bf662000be7565b62000c0381848462000bbc565b505050565b5b8181101562000c2b5762000c1f60008262000bec565b60018101905062000c09565b5050565b601f82111562000c7a5762000c448162000af8565b62000c4f8462000b0d565b8101602085101562000c5f578190505b62000c7762000c6e8562000b0d565b83018262000c08565b50505b505050565b600082821c905092915050565b600062000c9f6000198460080262000c7f565b1980831691505092915050565b600062000cba838362000c8c565b9150826002028217905092915050565b62000cd58262000a89565b67ffffffffffffffff81111562000cf15762000cf062000875565b5b62000cfd825462000ac3565b62000d0a82828562000c2f565b600060209050601f83116001811462000d42576000841562000d2d578287015190505b62000d39858262000cac565b86555062000da9565b601f19841662000d528662000af8565b60005b8281101562000d7c5784890151825560018201915060208501945060208101905062000d55565b8683101562000d9c578489015162000d98601f89168262000c8c565b8355505b6001600288020188555050505b505050505050565b6000819050919050565b62000dc68162000db1565b82525050565b62000dd7816200081f565b82525050565b62000de881620007da565b82525050565b600060a08201905062000e05600083018862000dbb565b62000e14602083018762000dbb565b62000e23604083018662000dbb565b62000e32606083018562000dcc565b62000e41608083018462000ddd565b9695505050505050565b600082825260208201905092915050565b7f4f776e61626c653a206e6577206f776e657220697320746865207a65726f206160008201527f6464726573730000000000000000000000000000000000000000000000000000602082015250565b600062000eba60268362000e4b565b915062000ec78262000e5c565b604082019050919050565b6000602082019050818103600083015262000eed8162000eab565b9050919050565b600062000f018262000a89565b62000f0d818562000e4b565b935062000f1f8185602086016200092f565b62000f2a8162000864565b840191505092915050565b6000602082019050818103600083015262000f51818462000ef4565b905092915050565b600081519050919050565b6000819050602082019050919050565b600062000f82825162000db1565b80915050919050565b600062000f988262000f59565b8262000fa48462000f64565b905062000fb18162000f74565b9250602082101562000ff45762000fef7fffffffffffffffffffffffffffffffffffffffffffffffffffffffffffffffff8360200360080262000b1d565b831692505b5050919050565b7f4f776e61626c653a2063616c6c6572206973206e6f7420746865206f776e6572600082015250565b60006200103360208362000e4b565b9150620010408262000ffb565b602082019050919050565b60006020820190508181036000830152620010668162001024565b9050919050565b7f45524332303a206d696e7420746f20746865207a65726f206164647265737300600082015250565b6000620010a5601f8362000e4b565b9150620010b2826200106d565b602082019050919050565b60006020820190508181036000830152620010d88162001096565b9050919050565b7f4e487b7100000000000000000000000000000000000000000000000000000000600052601160045260246000fd5b60006200111b826200081f565b915062001128836200081f565b9250828201905080821115620011435762001142620010df565b5b92915050565b600060208201905062001160600083018462000dcc565b92915050565b60805160a05160c05160e051610100516101205161014051612f2a620011c160003960006106ae0152600061067a015260006117b3015260006117920152600061107c015260006110d2015260006110fb0152612f2a6000f3fe608060405234801561001057600080fd5b506004361061012c5760003560e01c80637ecebe00116100ad578063a9059cbb11610071578063a9059cbb1461034f578063d1df306c1461037f578063d505accf1461039b578063dd62ed3e146103b7578063f2fde38b146103e75761012c565b80637ecebe001461028f57806384b0196e146102bf5780638da5cb5b146102e357806395d89b4114610301578063a457c2d71461031f5761012c565b80633644e515116100f45780633644e515146101eb578063395093511461020957806370a0823114610239578063715018a61461026957806379c65068146102735761012c565b806306fdde0314610131578063095ea7b31461014f57806318160ddd1461017f57806323b872dd1461019d578063313ce567146101cd575b600080fd5b610139610403565b6040516101469190611bf6565b60405180910390f35b61016960048036038101906101649190611cb1565b610495565b6040516101769190611d0c565b60405180910390f35b6101876104b8565b6040516101949190611d36565b60405180910390f35b6101b760048036038101906101b29190611d51565b6104c2565b6040516101c49190611d0c565b60405180910390f35b6101d56104f1565b6040516101e29190611dc0565b60405180910390f35b6101f36104fa565b6040516102009190611df4565b60405180910390f35b610223600480360381019061021e9190611cb1565b610509565b6040516102309190611d0c565b60405180910390f35b610253600480360381019061024e9190611e0f565b610540565b6040516102609190611d36565b60405180910390f35b610271610589565b005b61028d60048036038101906102889190611cb1565b61059d565b005b6102a960048036038101906102a49190611e0f565b610617565b6040516102b69190611d36565b60405180910390f35b6102c7610667565b6040516102da9796959493929190611f44565b60405180910390f35b6102eb610769565b6040516102f89190611fc8565b60405180910390f35b610309610792565b6040516103169190611bf6565b60405180910390f35b61033960048036038101906103349190611cb1565b610824565b6040516103469190611d0c565b60405180910390f35b61036960048036038101906103649190611cb1565b61089b565b6040516103769190611d0c565b60405180910390f35b61039960048036038101906103949190611cb1565b6108be565b005b6103b560048036038101906103b0919061203b565b610908565b005b6103d160048036038101906103cc91906120dd565b610a4a565b6040516103de9190611d36565b60405180910390f35b61040160048036038101906103fc9190611e0f565b610ad1565b005b6060600480546104129061214c565b80601f016020809104026020016040519081016040528092919081815260200182805461043e9061214c565b801561048b5780601f106104605761010080835404028352916020019161048b565b820191906000526020600020905b81548152906001019060200180831161046e57829003601f168201915b5050505050905090565b6000806104a0610ba2565b90506104ad818585610baa565b600191505092915050565b6000600354905090565b6000806104cd610ba2565b90506104da858285610d73565b6104e5858585610dff565b60019150509392505050565b60006012905090565b6000610504611078565b905090565b600080610514610ba2565b90506105358185856105268589610a4a565b61053091906121ac565b610baa565b600191505092915050565b6000600160008373ffffffffffffffffffffffffffffffffffffffff1673ffffffffffffffffffffffffffffffffffffffff168152602001908152602001600020549050919050565b61059161112f565b61059b60006111ad565b565b6105b16717c694a5b27045c960c01b611271565b6105b961112f565b6105cd67e86467241b88e2a660c01b611271565b6105e167d078f5f16e809fbd60c01b611271565b6105f5672bdf5e708dee4c9560c01b611271565b610609674cdfcfdded238dc060c01b611271565b6106138282611274565b5050565b6000610660600860008473ffffffffffffffffffffffffffffffffffffffff1673ffffffffffffffffffffffffffffffffffffffff1681526020019081526020016000206113cb565b9050919050565b6000606080600080600060606106a760067f00000000000000000000000000000000000000000000000000000000000000006113d990919063ffffffff16565b6106db60077f00000000000000000000000000000000000000000000000000000000000000006113d990919063ffffffff16565b46306000801b600067ffffffffffffffff8111156106fc576106fb6121e0565b5b60405190808252806020026020018201604052801561072a5781602001602082028036833780820191505090505b507f0f00000000000000000000000000000000000000000000000000000000000000959493929190965096509650965096509650965090919293949596565b60008060009054906101000a900473ffffffffffffffffffffffffffffffffffffffff16905090565b6060600580546107a19061214c565b80601f01602080910402602001604051908101604052809291908181526020018280546107cd9061214c565b801561081a5780601f106107ef5761010080835404028352916020019161081a565b820191906000526020600020905b8154815290600101906020018083116107fd57829003601f168201915b5050505050905090565b60008061082f610ba2565b9050600061083d8286610a4a565b905083811015610882576040517f08c379a000000000000000000000000000000000000000000000000000000000815260040161087990612281565b60405180910390fd5b61088f8286868403610baa565b60019250505092915050565b6000806108a6610ba2565b90506108b3818585610dff565b600191505092915050565b6108d2671abad2337e62addf60c01b611271565b6108e667991ddf0920373c0760c01b611271565b6108fa67b1019d75e14e279160c01b611271565b6109048282611489565b5050565b8342111561094b576040517f08c379a0000000000000000000000000000000000000000000000000000000008152600401610942906122ed565b60405180910390fd5b60007f6e71edae12b1b97f4d1f60370fef10105fa2faae0126114a169c64845d6126c988888861097a8c611658565b896040516020016109909695949392919061230d565b60405160208183030381529060405280519060200120905060006109b3826116b6565b905060006109c3828787876116d0565b90508973ffffffffffffffffffffffffffffffffffffffff168173ffffffffffffffffffffffffffffffffffffffff1614610a33576040517f08c379a0000000000000000000000000000000000000000000000000000000008152600401610a2a906123ba565b60405180910390fd5b610a3e8a8a8a610baa565b50505050505050505050565b6000600260008473ffffffffffffffffffffffffffffffffffffffff1673ffffffffffffffffffffffffffffffffffffffff16815260200190815260200160002060008373ffffffffffffffffffffffffffffffffffffffff1673ffffffffffffffffffffffffffffffffffffffff16815260200190815260200160002054905092915050565b610ad961112f565b600073ffffffffffffffffffffffffffffffffffffffff168173ffffffffffffffffffffffffffffffffffffffff1603610b48576040517f08c379a0000000000000000000000000000000000000000000000000000000008152600401610b3f9061244c565b60405180910390fd5b610b51816111ad565b50565b6000602083511015610b7057610b69836116fb565b9050610b92565b82610b7a83610b98565b6000019081610b899190612618565b5060ff60001b90505b92915050565b6000819050919050565b600033905090565b600073ffffffffffffffffffffffffffffffffffffffff168373ffffffffffffffffffffffffffffffffffffffff1603610c19576040517f08c379a0000000000000000000000000000000000000000000000000000000008152600401610c109061275c565b60405180910390fd5b600073ffffffffffffffffffffffffffffffffffffffff168273ffffffffffffffffffffffffffffffffffffffff1603610c88576040517f08c379a0000000000000000000000000000000000000000000000000000000008152600401610c7f906127ee565b60405180910390fd5b80600260008573ffffffffffffffffffffffffffffffffffffffff1673ffffffffffffffffffffffffffffffffffffffff16815260200190815260200160002060008473ffffffffffffffffffffffffffffffffffffffff1673ffffffffffffffffffffffffffffffffffffffff168152602001908152602001600020819055508173ffffffffffffffffffffffffffffffffffffffff168373ffffffffffffffffffffffffffffffffffffffff167f8c5be1e5ebec7d5bd14f71427d1e84f3dd0314c0f7b2291e5b200ac8c7c3b92583604051610d669190611d36565b60405180910390a3505050565b6000610d7f8484610a4a565b90507fffffffffffffffffffffffffffffffffffffffffffffffffffffffffffffffff8114610df95781811015610deb576040517f08c379a0000000000000000000000000000000000000000000000000000000008152600401610de29061285a565b60405180910390fd5b610df88484848403610baa565b5b50505050565b600073ffffffffffffffffffffffffffffffffffffffff168373ffffffffffffffffffffffffffffffffffffffff1603610e6e576040517f08c379a0000000000000000000000000000000000000000000000000000000008152600401610e65906128ec565b60405180910390fd5b600073ffffffffffffffffffffffffffffffffffffffff168273ffffffffffffffffffffffffffffffffffffffff1603610edd576040517f08c379a0000000000000000000000000000000000000000000000000000000008152600401610ed49061297e565b60405180910390fd5b610ee8838383611763565b6000600160008573ffffffffffffffffffffffffffffffffffffffff1673ffffffffffffffffffffffffffffffffffffffff16815260200190815260200160002054905081811015610f6f576040517f08c379a0000000000000000000000000000000000000000000000000000000008152600401610f6690612a10565b60405180910390fd5b818103600160008673ffffffffffffffffffffffffffffffffffffffff1673ffffffffffffffffffffffffffffffffffffffff1681526020019081526020016000208190555081600160008573ffffffffffffffffffffffffffffffffffffffff1673ffffffffffffffffffffffffffffffffffffffff168152602001908152602001600020600082825401925050819055508273ffffffffffffffffffffffffffffffffffffffff168473ffffffffffffffffffffffffffffffffffffffff167fddf252ad1be2c89b69c2b068fc378daa952ba7f163c4a11628f55a4df523b3ef8460405161105f9190611d36565b60405180910390a3611072848484611768565b50505050565b60007f000000000000000000000000000000000000000000000000000000000000000073ffffffffffffffffffffffffffffffffffffffff163073ffffffffffffffffffffffffffffffffffffffff161480156110f457507f000000000000000000000000000000000000000000000000000000000000000046145b15611121577f0000000000000000000000000000000000000000000000000000000000000000905061112c565b61112961176d565b90505b90565b611137610ba2565b73ffffffffffffffffffffffffffffffffffffffff16611155610769565b73ffffffffffffffffffffffffffffffffffffffff16146111ab576040517f08c379a00000000000000000000000000000000000000000000000000000000081526004016111a290612a7c565b60405180910390fd5b565b60008060009054906101000a900473ffffffffffffffffffffffffffffffffffffffff169050816000806101000a81548173ffffffffffffffffffffffffffffffffffffffff021916908373ffffffffffffffffffffffffffffffffffffffff1602179055508173ffffffffffffffffffffffffffffffffffffffff168173ffffffffffffffffffffffffffffffffffffffff167f8be0079c531659141344cd1fd0a4f28419497f9722a3daafe3b4186f6b6457e060405160405180910390a35050565b50565b600073ffffffffffffffffffffffffffffffffffffffff168273ffffffffffffffffffffffffffffffffffffffff16036112e3576040517f08c379a00000000000000000000000000000000000000000000000000000000081526004016112da90612ae8565b60405180910390fd5b6112ef60008383611763565b806003600082825461130191906121ac565b9250508190555080600160008473ffffffffffffffffffffffffffffffffffffffff1673ffffffffffffffffffffffffffffffffffffffff168152602001908152602001600020600082825401925050819055508173ffffffffffffffffffffffffffffffffffffffff16600073ffffffffffffffffffffffffffffffffffffffff167fddf252ad1be2c89b69c2b068fc378daa952ba7f163c4a11628f55a4df523b3ef836040516113b39190611d36565b60405180910390a36113c760008383611768565b5050565b600081600001549050919050565b606060ff60001b83146113f6576113ef83611803565b9050611483565b8180546114029061214c565b80601f016020809104026020016040519081016040528092919081815260200182805461142e9061214c565b801561147b5780601f106114505761010080835404028352916020019161147b565b820191906000526020600020905b81548152906001019060200180831161145e57829003601f168201915b505050505090505b92915050565b600073ffffffffffffffffffffffffffffffffffffffff168273ffffffffffffffffffffffffffffffffffffffff16036114f8576040517f08c379a00000000000000000000000000000000000000000000000000000000081526004016114ef90612b7a565b60405180910390fd5b61150482600083611763565b6000600160008473ffffffffffffffffffffffffffffffffffffffff1673ffffffffffffffffffffffffffffffffffffffff1681526020019081526020016000205490508181101561158b576040517f08c379a000000000000000000000000000000000000000000000000000000000815260040161158290612c0c565b60405180910390fd5b818103600160008573ffffffffffffffffffffffffffffffffffffffff1673ffffffffffffffffffffffffffffffffffffffff1681526020019081526020016000208190555081600360008282540392505081905550600073ffffffffffffffffffffffffffffffffffffffff168373ffffffffffffffffffffffffffffffffffffffff167fddf252ad1be2c89b69c2b068fc378daa952ba7f163c4a11628f55a4df523b3ef8460405161163f9190611d36565b60405180910390a361165383600084611768565b505050565b600080600860008473ffffffffffffffffffffffffffffffffffffffff1673ffffffffffffffffffffffffffffffffffffffff16815260200190815260200160002090506116a5816113cb565b91506116b081611877565b50919050565b60006116c96116c3611078565b8361188d565b9050919050565b60008060006116e1878787876118ce565b915091506116ee816119b0565b8192505050949350505050565b600080829050601f8151111561174857826040517f305a27a900000000000000000000000000000000000000000000000000000000815260040161173f9190611bf6565b60405180910390fd5b80518161175490612c5c565b60001c1760001b915050919050565b505050565b505050565b60007f8b73c3c69bb8fe3d512ecc4cf759cc79239f7b179b0ffacaa9a75d522b39400f7f00000000000000000000000000000000000000000000000000000000000000007f000000000000000000000000000000000000000000000000000000000000000046306040516020016117e8959493929190612cc3565b60405160208183030381529060405280519060200120905090565b6060600061181083611b16565b90506000602067ffffffffffffffff81111561182f5761182e6121e0565b5b6040519080825280601f01601f1916602001820160405280156118615781602001600182028036833780820191505090505b5090508181528360208201528092505050919050565b6001816000016000828254019250508190555050565b60006040517f190100000000000000000000000000000000000000000000000000000000000081528360028201528260228201526042812091505092915050565b6000807f7fffffffffffffffffffffffffffffff5d576e7357a4501ddfe92f46681b20a08360001c11156119095760006003915091506119a7565b60006001878787876040516000815260200160405260405161192e9493929190612d16565b6020604051602081039080840390855afa158015611950573d6000803e3d6000fd5b505050602060405103519050600073ffffffffffffffffffffffffffffffffffffffff168173ffffffffffffffffffffffffffffffffffffffff160361199e576000600192509250506119a7565b80600092509250505b94509492505050565b600060048111156119c4576119c3612d5b565b5b8160048111156119d7576119d6612d5b565b5b0315611b1357600160048111156119f1576119f0612d5b565b5b816004811115611a0457611a03612d5b565b5b03611a44576040517f08c379a0000000000000000000000000000000000000000000000000000000008152600401611a3b90612dd6565b60405180910390fd5b60026004811115611a5857611a57612d5b565b5b816004811115611a6b57611a6a612d5b565b5b03611aab576040517f08c379a0000000000000000000000000000000000000000000000000000000008152600401611aa290612e42565b60405180910390fd5b60036004811115611abf57611abe612d5b565b5b816004811115611ad257611ad1612d5b565b5b03611b12576040517f08c379a0000000000000000000000000000000000000000000000000000000008152600401611b0990612ed4565b60405180910390fd5b5b50565b60008060ff8360001c169050601f811115611b5d576040517fb3512b0c00000000000000000000000000000000000000000000000000000000815260040160405180910390fd5b80915050919050565b600081519050919050565b600082825260208201905092915050565b60005b83811015611ba0578082015181840152602081019050611b85565b60008484015250505050565b6000601f19601f8301169050919050565b6000611bc882611b66565b611bd28185611b71565b9350611be2818560208601611b82565b611beb81611bac565b840191505092915050565b60006020820190508181036000830152611c108184611bbd565b905092915050565b600080fd5b600073ffffffffffffffffffffffffffffffffffffffff82169050919050565b6000611c4882611c1d565b9050919050565b611c5881611c3d565b8114611c6357600080fd5b50565b600081359050611c7581611c4f565b92915050565b6000819050919050565b611c8e81611c7b565b8114611c9957600080fd5b50565b600081359050611cab81611c85565b92915050565b60008060408385031215611cc857611cc7611c18565b5b6000611cd685828601611c66565b9250506020611ce785828601611c9c565b9150509250929050565b60008115159050919050565b611d0681611cf1565b82525050565b6000602082019050611d216000830184611cfd565b92915050565b611d3081611c7b565b82525050565b6000602082019050611d4b6000830184611d27565b92915050565b600080600060608486031215611d6a57611d69611c18565b5b6000611d7886828701611c66565b9350506020611d8986828701611c66565b9250506040611d9a86828701611c9c565b9150509250925092565b600060ff82169050919050565b611dba81611da4565b82525050565b6000602082019050611dd56000830184611db1565b92915050565b6000819050919050565b611dee81611ddb565b82525050565b6000602082019050611e096000830184611de5565b92915050565b600060208284031215611e2557611e24611c18565b5b6000611e3384828501611c66565b91505092915050565b60007fff0000000000000000000000000000000000000000000000000000000000000082169050919050565b611e7181611e3c565b82525050565b611e8081611c3d565b82525050565b600081519050919050565b600082825260208201905092915050565b6000819050602082019050919050565b611ebb81611c7b565b82525050565b6000611ecd8383611eb2565b60208301905092915050565b6000602082019050919050565b6000611ef182611e86565b611efb8185611e91565b9350611f0683611ea2565b8060005b83811015611f37578151611f1e8882611ec1565b9750611f2983611ed9565b925050600181019050611f0a565b5085935050505092915050565b600060e082019050611f59600083018a611e68565b8181036020830152611f6b8189611bbd565b90508181036040830152611f7f8188611bbd565b9050611f8e6060830187611d27565b611f9b6080830186611e77565b611fa860a0830185611de5565b81810360c0830152611fba8184611ee6565b905098975050505050505050565b6000602082019050611fdd6000830184611e77565b92915050565b611fec81611da4565b8114611ff757600080fd5b50565b60008135905061200981611fe3565b92915050565b61201881611ddb565b811461202357600080fd5b50565b6000813590506120358161200f565b92915050565b600080600080600080600060e0888a03121561205a57612059611c18565b5b60006120688a828b01611c66565b97505060206120798a828b01611c66565b965050604061208a8a828b01611c9c565b955050606061209b8a828b01611c9c565b94505060806120ac8a828b01611ffa565b93505060a06120bd8a828b01612026565b92505060c06120ce8a828b01612026565b91505092959891949750929550565b600080604083850312156120f4576120f3611c18565b5b600061210285828601611c66565b925050602061211385828601611c66565b9150509250929050565b7f4e487b7100000000000000000000000000000000000000000000000000000000600052602260045260246000fd5b6000600282049050600182168061216457607f821691505b6020821081036121775761217661211d565b5b50919050565b7f4e487b7100000000000000000000000000000000000000000000000000000000600052601160045260246000fd5b60006121b782611c7b565b91506121c283611c7b565b92508282019050808211156121da576121d961217d565b5b92915050565b7f4e487b7100000000000000000000000000000000000000000000000000000000600052604160045260246000fd5b7f45524332303a2064656372656173656420616c6c6f77616e63652062656c6f7760008201527f207a65726f000000000000000000000000000000000000000000000000000000602082015250565b600061226b602583611b71565b91506122768261220f565b604082019050919050565b6000602082019050818103600083015261229a8161225e565b9050919050565b7f45524332305065726d69743a206578706972656420646561646c696e65000000600082015250565b60006122d7601d83611b71565b91506122e2826122a1565b602082019050919050565b60006020820190508181036000830152612306816122ca565b9050919050565b600060c0820190506123226000830189611de5565b61232f6020830188611e77565b61233c6040830187611e77565b6123496060830186611d27565b6123566080830185611d27565b61236360a0830184611d27565b979650505050505050565b7f45524332305065726d69743a20696e76616c6964207369676e61747572650000600082015250565b60006123a4601e83611b71565b91506123af8261236e565b602082019050919050565b600060208201905081810360008301526123d381612397565b9050919050565b7f4f776e61626c653a206e6577206f776e657220697320746865207a65726f206160008201527f6464726573730000000000000000000000000000000000000000000000000000602082015250565b6000612436602683611b71565b9150612441826123da565b604082019050919050565b6000602082019050818103600083015261246581612429565b9050919050565b60008190508160005260206000209050919050565b60006020601f8301049050919050565b600082821b905092915050565b6000600883026124ce7fffffffffffffffffffffffffffffffffffffffffffffffffffffffffffffffff82612491565b6124d88683612491565b95508019841693508086168417925050509392505050565b6000819050919050565b600061251561251061250b84611c7b565b6124f0565b611c7b565b9050919050565b6000819050919050565b61252f836124fa565b61254361253b8261251c565b84845461249e565b825550505050565b600090565b61255861254b565b612563818484612526565b505050565b5b818110156125875761257c600082612550565b600181019050612569565b5050565b601f8211156125cc5761259d8161246c565b6125a684612481565b810160208510156125b5578190505b6125c96125c185612481565b830182612568565b50505b505050565b600082821c905092915050565b60006125ef600019846008026125d1565b1980831691505092915050565b600061260883836125de565b9150826002028217905092915050565b61262182611b66565b67ffffffffffffffff81111561263a576126396121e0565b5b612644825461214c565b61264f82828561258b565b600060209050601f8311600181146126825760008415612670578287015190505b61267a85826125fc565b8655506126e2565b601f1984166126908661246c565b60005b828110156126b857848901518255600182019150602085019450602081019050612693565b868310156126d557848901516126d1601f8916826125de565b8355505b6001600288020188555050505b505050505050565b7f45524332303a20617070726f76652066726f6d20746865207a65726f2061646460008201527f7265737300000000000000000000000000000000000000000000000000000000602082015250565b6000612746602483611b71565b9150612751826126ea565b604082019050919050565b6000602082019050818103600083015261277581612739565b9050919050565b7f45524332303a20617070726f766520746f20746865207a65726f20616464726560008201527f7373000000000000000000000000000000000000000000000000000000000000602082015250565b60006127d8602283611b71565b91506127e38261277c565b604082019050919050565b60006020820190508181036000830152612807816127cb565b9050919050565b7f45524332303a20696e73756666696369656e7420616c6c6f77616e6365000000600082015250565b6000612844601d83611b71565b915061284f8261280e565b602082019050919050565b6000602082019050818103600083015261287381612837565b9050919050565b7f45524332303a207472616e736665722066726f6d20746865207a65726f20616460008201527f6472657373000000000000000000000000000000000000000000000000000000602082015250565b60006128d6602583611b71565b91506128e18261287a565b604082019050919050565b60006020820190508181036000830152612905816128c9565b9050919050565b7f45524332303a207472616e7366657220746f20746865207a65726f206164647260008201527f6573730000000000000000000000000000000000000000000000000000000000602082015250565b6000612968602383611b71565b91506129738261290c565b604082019050919050565b600060208201905081810360008301526129978161295b565b9050919050565b7f45524332303a207472616e7366657220616d6f756e742065786365656473206260008201527f616c616e63650000000000000000000000000000000000000000000000000000602082015250565b60006129fa602683611b71565b9150612a058261299e565b604082019050919050565b60006020820190508181036000830152612a29816129ed565b9050919050565b7f4f776e61626c653a2063616c6c6572206973206e6f7420746865206f776e6572600082015250565b6000612a66602083611b71565b9150612a7182612a30565b602082019050919050565b60006020820190508181036000830152612a9581612a59565b9050919050565b7f45524332303a206d696e7420746f20746865207a65726f206164647265737300600082015250565b6000612ad2601f83611b71565b9150612add82612a9c565b602082019050919050565b60006020820190508181036000830152612b0181612ac5565b9050919050565b7f45524332303a206275726e2066726f6d20746865207a65726f2061646472657360008201527f7300000000000000000000000000000000000000000000000000000000000000602082015250565b6000612b64602183611b71565b9150612b6f82612b08565b604082019050919050565b60006020820190508181036000830152612b9381612b57565b9050919050565b7f45524332303a206275726e20616d6f756e7420657863656564732062616c616e60008201527f6365000000000000000000000000000000000000000000000000000000000000602082015250565b6000612bf6602283611b71565b9150612c0182612b9a565b604082019050919050565b60006020820190508181036000830152612c2581612be9565b9050919050565b600081519050919050565b6000819050602082019050919050565b6000612c538251611ddb565b80915050919050565b6000612c6782612c2c565b82612c7184612c37565b9050612c7c81612c47565b92506020821015612cbc57612cb77fffffffffffffffffffffffffffffffffffffffffffffffffffffffffffffffff83602003600802612491565b831692505b5050919050565b600060a082019050612cd86000830188611de5565b612ce56020830187611de5565b612cf26040830186611de5565b612cff6060830185611d27565b612d0c6080830184611e77565b9695505050505050565b6000608082019050612d2b6000830187611de5565b612d386020830186611db1565b612d456040830185611de5565b612d526060830184611de5565b95945050505050565b7f4e487b7100000000000000000000000000000000000000000000000000000000600052602160045260246000fd5b7f45434453413a20696e76616c6964207369676e61747572650000000000000000600082015250565b6000612dc0601883611b71565b9150612dcb82612d8a565b602082019050919050565b60006020820190508181036000830152612def81612db3565b9050919050565b7f45434453413a20696e76616c6964207369676e6174757265206c656e67746800600082015250565b6000612e2c601f83611b71565b9150612e3782612df6565b602082019050919050565b60006020820190508181036000830152612e5b81612e1f565b9050919050565b7f45434453413a20696e76616c6964207369676e6174757265202773272076616c60008201527f7565000000000000000000000000000000000000000000000000000000000000602082015250565b6000612ebe602283611b71565b9150612ec982612e62565b604082019050919050565b60006020820190508181036000830152612eed81612eb1565b905091905056fea264697066735822122040b37121919c9192f6118cee7fb894239b4a127fb3b556a23b9612fc08e73e7864736f6c63430008120033",
  "linkReferences": {},
  "deployedLinkReferences": {}
}